Index  Type    Byte_counts     Address                Data                                                         Checksum 
0       S0       0xF            0x0000              0x50776D5F54535F5630310000                                       0xA0
1       S3       0x21           0x1FFE0ED0          0x00000000000000000000000000000000000000000000000000000000       0xE3
2       S3       0x21           0x1FFE0EEC          0x00000000000000000000000000000000000000000000000000000000       0xC7
3       Line length does not match byte count: 31. Ivalid check sum. 
4       Ivalid check sum. 
5       S3       0x21           0x1FFE0F40          0x00000000000000000000000000000000000000000000000000000000       0x72
6       Line length does not match byte count: 31. Ivalid check sum. 
7       S3       0x21           0x1FFE0F78          0x00000000000000000000000000000000000000000000000000000000       0x3A
8       S3       0x21           0x1FFE0F94          0x00000000000000000000000000000000000000000000000000000000       0x1E
9       S3       0x21           0x1FFE0FB0          0x00000000000000000000000000000000000000000000000000000000       0x02
10      S3       0x21           0x1FFE0FCC          0x00000000000000000000000000000000000000000000000000000000       0xE6
11      Ivalid check sum. 
12      S3       0x21           0x1FFE1004          0x00000000000000000000000000000000000000000000000000000000       0xAD
13      S3       0x21           0x1FFE1020          0x00000000000000000000000000000000000000000000000000000000       0x91
14      Invalid hex character at position 6: K. Ivalid check sum. 
15      S3       0x21           0x1FFE1058          0x00000000000000000000000000000000000000000000000000000000       0x59
16      S3       0x21           0x1FFE1074          0x00000000000000000000000000000000000000000000000000000000       0x3D
17      S3       0x21           0x1FFE1090          0x00000000000000000000000000000000000000000000000000000000       0x21
18      S3       0x21           0x1FFE10AC          0x00000000000000000000000000000000000000000000000000000000       0x05
19      S3       0x21           0x1FFE10C8          0x00000000000000000000000000000000000000000000000000000000       0xE9
20      S3       0x21           0x1FFE10E4          0x00000000000000000000000000000000000000000000000000000000       0xCD
21      S3       0x21           0x1FFE1100          0x00000000000000000000000000000000000000000000000000000000       0xB0
22      S3       0x21           0x1FFE111C          0x00000000000000000000000000000000000000000000000000000000       0x94
23      S3       0x21           0x1FFE1138          0x00000000000000000000000000000000000000000000000000000000       0x78
24      S3       0x21           0x1FFE1154          0x00000000000000000000000000000000000000000000000000000000       0x5C
25      S3       0x21           0x1FFE1170          0x00000000000000000000000000000000000000000000000000000000       0x40
26      S3       0x21           0x1FFE118C          0x00000000000000000000000000000000000000000000000000000000       0x24
27      S3       0x21           0x1FFE11A8          0x00000000000000000000000000000000000000000000000000000000       0x08
28      S3       0x21           0x1FFE11C4          0x00000000000000000000000000000000000000000000000000000000       0xEC
29      S3       0x21           0x1FFE11E0          0x00000000000000000000000000000000000000000000000000000000       0xD0
30      S3       0x21           0x1FFE11FC          0x00000000000000000000000000000000000000000000000000000000       0xB4
31      S3       0x21           0x1FFE1218          0x00000000000000000000000000000000000000000000000000000000       0x97
32      S3       0x21           0x1FFE1234          0x00000000000000000000000000000000000000000000000000000000       0x7B
33      S3       0x21           0x1FFE1250          0x00000000000000000000000000000000000000000000000000000000       0x5F
34      S3       0x21           0x1FFE126C          0x00000000000000000000000000000000000000000000000000000000       0x43
35      S3       0x21           0x1FFE1288          0x00000000000000000000000000000000000000000000000000000000       0x27
36      S3       0x21           0x1FFE12A4          0x00000000000000000000000000000000000000000000000000000000       0x0B
37      S3       0x21           0x1FFE12C0          0x00000000000000000000000000000000000000000000000000000000       0xEF
38      S3       0x21           0x1FFE12DC          0x00000000000000000000000000000000000000000000000000000000       0xD3
39      S3       0x21           0x1FFE12F8          0x00000000000000000000000000000000000000000000000000000000       0xB7
40      S3       0x21           0x1FFE1314          0x00000000000000000000000000000000000000000000000000000000       0x9A
41      S3       0x21           0x1FFE1330          0x00000000000000000000000000000000000000000000000000000000       0x7E
42      S3       0x21           0x1FFE134C          0x00000000000000000000000000000000000000000000000000000000       0x62
43      S3       0x21           0x1FFE1368          0x00000000000000000000000000000000000000000000000000000000       0x46
44      S3       0x21           0x1FFE1384          0x00000000000000000000000000000000000000000000000000000000       0x2A
45      S3       0x21           0x1FFE13A0          0x00000000000000000000000000000000000000000000000000000000       0x0E
46      S3       0x21           0x1FFE13BC          0x00000000000000000000000000000000000000000000000000000000       0xF2
47      S3       0x21           0x1FFE13D8          0x00000000000000000000000000000000000000000000000000000000       0xD6
48      S3       0x21           0x1FFE13F4          0x00000000000000000000000000000000000000000000000000000000       0xBA
49      S3       0x21           0x1FFE1410          0x00000000000000000000000000000000000000000000000000000000       0x9D
50      S3       0x21           0x1FFE142C          0x00000000000000000000000000000000000000000000000000000000       0x81
51      S3       0x21           0x1FFE1448          0x00000000000000000000000000000000000000000000000000000000       0x65
52      S3       0x21           0x1FFE1464          0x00000000000000000000000000000000000000000000000000000000       0x49
53      S3       0x21           0x1FFE1480          0x00000000000000000000000000000000000000000000000000000000       0x2D
54      S3       0x21           0x1FFE149C          0x00000000000000000000000000000000000000000000000000000000       0x11
55      S3       0x21           0x1FFE14B8          0x00000000000000000000000000000000000000000000000000000000       0xF5
56      S3       0x21           0x1FFE14D4          0x00000000000000000000000000000000000000000000000000000000       0xD9
57      S3       0x21           0x1FFE14F0          0x00000000000000000000000000000000000000000000000000000000       0xBD
58      S3       0x21           0x1FFE150C          0x00000000000000000000000000000000000000000000000000000000       0xA0
59      S3       0x21           0x1FFE1528          0x00000000000000000000000000000000000000000000000000000000       0x84
60      S3       0x21           0x1FFE1544          0x00000000000000000000000000000000000000000000000000000000       0x68
61      S3       0x21           0x1FFE1560          0x00000000000000000000000000000000000000000000000000000000       0x4C
62      S3       0x21           0x1FFE157C          0x00000000000000000000000000000000000000000000000000000000       0x30
63      S3       0x21           0x1FFE1598          0x00000000000000000000000000000000000000000000000000000000       0x14
64      S3       0x21           0x1FFE15B4          0x00000000000000000000000000000000000000000000000000000000       0xF8
65      S3       0x21           0x1FFE15D0          0x00000000000000000000000000000000000000000000000000000000       0xDC
66      S3       0x21           0x1FFE15EC          0x00000000000000000000000000000000000000000000000000000000       0xC0
67      S3       0x21           0x1FFE1608          0x00000000000000000000000000000000000000000000000000000000       0xA3
68      S3       0x21           0x1FFE1624          0x00000000000000000000000000000000000000000000000000000000       0x87
69      S3       0x21           0x1FFE1640          0x00000000000000000000000000000000000000000000000000000000       0x6B
70      S3       0x21           0x1FFE165C          0x00000000000000000000000000000000000000000000000000000000       0x4F
71      S3       0x21           0x1FFE1678          0x00000000000000000000000000000000000000000000000000000000       0x33
72      S3       0x21           0x1FFE1694          0x00000000000000000000000000000000000000000000000000000000       0x17
73      S3       0x21           0x1FFE16B0          0x00000000000000000000000000000000000000000000000000000000       0xFB
74      S3       0x21           0x1FFE16CC          0x00000000000000000000000000000000000000000000000000000000       0xDF
75      S3       0x21           0x1FFE16E8          0x00000000000000000000000000000000000000000000000000000000       0xC3
76      S3       0x21           0x1FFE1704          0x00000000000000000000000000000000000000000000000000000000       0xA6
77      S3       0x21           0x1FFE1720          0x00000000000000000000000000000000000000000000000000000000       0x8A
78      S3       0x21           0x1FFE173C          0x00000000000000000000000000000000000000000000000000000000       0x6E
79      S3       0x21           0x1FFE1758          0x00000000000000000000000000000000000000000000000000000000       0x52
80      S3       0x21           0x1FFE1774          0x00000000000000000000000000000000000000000000000000000000       0x36
81      S3       0x21           0x1FFE1790          0x00000000000000000000000000000000000000000000000000000000       0x1A
82      S3       0x21           0x1FFE17AC          0x00000000000000000000000000000000000000000000000000000000       0xFE
83      S3       0x21           0x1FFE17C8          0x00000000000000000000000000000000000000000000000000000000       0xE2
84      S3       0x21           0x1FFE17E4          0x00000000000000000000000000000000000000000000000000000000       0xC6
85      S3       0x21           0x1FFE1800          0x00000000000000000000000000000000000000000000000000000000       0xA9
86      S3       0x21           0x1FFE181C          0x00000000000000000000000000000000000000000000000000000000       0x8D
87      S3       0x21           0x1FFE1838          0x00000000000000000000000000000000000000000000000000000000       0x71
88      S3       0x21           0x1FFE1854          0x00000000000000000000000000000000000000000000000000000000       0x55
89      S3       0x21           0x1FFE1870          0x00000000000000000000000000000000000000000000000000000000       0x39
90      S3       0x21           0x1FFE188C          0x00000000000000000000000000000000000000000000000000000000       0x1D
91      S3       0x21           0x1FFE18A8          0x00000000000000000000000000000000000000000000000000000000       0x01
92      S3       0x21           0x1FFE18C4          0x00000000000000000000000000000000000000000000000000000000       0xE5
93      S3       0x21           0x1FFE18E0          0x00000000000000000000000000000000000000000000000000000000       0xC9
94      S3       0x21           0x1FFE18FC          0x00000000000000000000000000000000000000000000000000000000       0xAD
95      S3       0x21           0x1FFE1918          0x00000000000000000000000000000000000000000000000000000000       0x90
96      S3       0x21           0x1FFE1934          0x00000000000000000000000000000000000000000000000000000000       0x74
97      S3       0x21           0x1FFE1950          0x00000000000000000000000000000000000000000000000000000000       0x58
98      S3       0x21           0x1FFE196C          0x00000000000000000000000000000000000000000000000000000000       0x3C
99      S3       0x21           0x1FFE1988          0x00000000000000000000000000000000000000000000000000000000       0x20
100     S3       0x21           0x1FFE19A4          0x00000000000000000000000000000000000000000000000000000000       0x04
101     S3       0x21           0x1FFE19C0          0x00000000000000000000000000000000000000000000000000000000       0xE8
102     S3       0x21           0x1FFE19DC          0x00000000000000000000000000000000000000000000000000000000       0xCC
103     S3       0x21           0x1FFE19F8          0x00000000000000000000000000000000000000000000000000000000       0xB0
104     S3       0x21           0x1FFE1A14          0x00000000000000000000000000000000000000000000000000000000       0x93
105     S3       0x21           0x1FFE1A30          0x00000000000000000000000000000000000000000000000000000000       0x77
106     S3       0x21           0x1FFE1A4C          0x00000000000000000000000000000000000000000000000000000000       0x5B
107     S3       0x21           0x1FFE1A68          0x00000000000000000000000000000000000000000000000000000000       0x3F
108     S3       0x21           0x1FFE1A84          0x00000000000000000000000000000000000000000000000000000000       0x23
109     S3       0x21           0x1FFE1AA0          0x00000000000000000000000000000000000000000000000000000000       0x07
110     S3       0x21           0x1FFE1ABC          0x00000000000000000000000000000000000000000000000000000000       0xEB
111     S3       0x21           0x1FFE1AD8          0x00000000000000000000000000000000000000000000000000000000       0xCF
112     S3       0x21           0x1FFE1AF4          0x00000000000000000000000000000000000000000000000000000000       0xB3
113     S3       0x21           0x1FFE1B10          0x00000000000000000000000000000000000000000000000000000000       0x96
114     S3       0x21           0x1FFE1B2C          0x00000000000000000000000000000000000000000000000000000000       0x7A
115     S3       0x21           0x1FFE1B48          0x00000000000000000000000000000000000000000000000000000000       0x5E
116     S3       0x21           0x1FFE1B64          0x00000000000000000000000000000000000000000000000000000000       0x42
117     S3       0x21           0x1FFE1B80          0x00000000000000000000000000000000000000000000000000000000       0x26
118     S3       0x21           0x1FFE1B9C          0x00000000000000000000000000000000000000000000000000000000       0x0A
119     S3       0x21           0x1FFE1BB8          0x00000000000000000000000000000000000000000000000000000000       0xEE
120     S3       0x21           0x1FFE1BD4          0x00000000000000000000000000000000000000000000000000000000       0xD2
121     S3       0x21           0x1FFE1BF0          0x00000000000000000000000000000000000000000000000000000000       0xB6
122     S3       0x21           0x1FFE1C0C          0x00000000000000000000000000000000000000000000000000000000       0x99
123     S3       0x21           0x1FFE1C28          0x00000000000000000000000000000000000000000000000000000000       0x7D
124     S3       0x21           0x1FFE1C44          0x00000000000000000000000000000000000000000000000000000000       0x61
125     S3       0x21           0x1FFE1C60          0x00000000000000000000000000000000000000000000000000000000       0x45
126     S3       0x21           0x1FFE1C7C          0x00000000000000000000000000000000000000000000000000000000       0x29
127     S3       0x21           0x1FFE1C98          0x00000000000000000000000000000000000000000000000000000000       0x0D
128     S3       0x21           0x1FFE1CB4          0x00000000000000000000000000000000000000000000000000000000       0xF1
129     S3       0x21           0x1FFE1CD0          0x00000000000000000000000000000000000000000000000000000000       0xD5
130     S3       0x21           0x1FFE1CEC          0x00000000000000000000000000000000000000000000000000000000       0xB9
131     S3       0x21           0x1FFE1D08          0x00000000000000000000000000000000000000000000000000000000       0x9C
132     S3       0x21           0x1FFE1D24          0x00000000000000000000000000000000000000000000000000000000       0x80
133     S3       0x21           0x1FFE1D40          0x00000000000000000000000000000000000000000000000000000000       0x64
134     S3       0x21           0x1FFE1D5C          0x00000000000000000000000000000000000000000000000000000000       0x48
135     S3       0x21           0x1FFE1D78          0x00000000000000000000000000000000000000000000000000000000       0x2C
136     S3       0x21           0x1FFE1D94          0x00000000000000000000000000000000000000000000000000000000       0x10
137     S3       0x21           0x1FFE1DB0          0x00000000000000000000000000000000000000000000000000000000       0xF4
138     S3       0x21           0x1FFE1DCC          0x00000000000000000000000000000000000000000000000000000000       0xD8
139     S3       0x21           0x1FFE1DE8          0x00000000000000000000000000000000000000000000000000000000       0xBC
140     S3       0x21           0x1FFE1E04          0x00000000000000000000000000000000000000000000000000000000       0x9F
141     S3       0x21           0x1FFE1E20          0x00000000000000000000000000000000000000000000000000000000       0x83
142     S3       0x21           0x1FFE1E3C          0x00000000000000000000000000000000000000000000000000000000       0x67
143     S3       0x21           0x1FFE1E58          0x00000000000000000000000000000000000000000000000000000000       0x4B
144     S3       0x21           0x1FFE1E74          0x00000000000000000000000000000000000000000000000000000000       0x2F
145     S3       0x21           0x1FFE1E90          0x00000000000000000000000000000000000000000000000000000000       0x13
146     S3       0x21           0x1FFE1EAC          0x00000000000000000000000000000000000000000000000000000000       0xF7
147     S3       0xD            0x1FFE1EC8          0x0000000000000000                                               0xEF
148     S3       0xD            0x00000000          0x0010000099070000                                               0x42
149     S3       0x21           0x00000400          0xFFFFFFFFFFFFFFFFFFFFFFFFFEFFFFFFD01EFE1F98070000B9080000       0x80
150     S3       0x21           0x0000041C          0x670F00006D0F0000730F0000790F0000000000000000000000000000       0xC2
151     S3       0x21           0x00000438          0x000000007F0F0000C50F000000000000CB0F0000D10F0000D70F0000       0xA0
152     S3       0x21           0x00000454          0xD70F0000D70F0000D70F0000D70F0000D70F0000D70F0000D70F0000       0x3C
153     S3       0x21           0x00000470          0xD70F0000D70F0000D70F0000D70F0000D70F0000D70F0000D70F0000       0x20
154     S3       0x21           0x0000048C          0xD70F0000D70F0000D70F0000D70F0000D70F0000D70F0000D70F0000       0x04
155     S3       0x21           0x000004A8          0xD70F0000D70F0000D70F0000D70F0000D70F0000D70F0000D70F0000       0xE8
156     S3       0x21           0x000004C4          0xD70F0000D70F0000D70F0000D70F0000D70F0000D70F0000D70F0000       0xCC
157     S3       0x21           0x000004E0          0xD70F0000D70F0000D70F0000D70F0000D70F0000D70F0000D70F0000       0xB0
158     S3       0x21           0x000004FC          0xD70F0000D70F0000D70F0000D70F0000D70F0000D70F0000D70F0000       0x94
159     S3       0x21           0x00000518          0xD70F0000D70F0000D70F0000D70F0000D70F0000D70F0000D70F0000       0x77
160     S3       0x21           0x00000534          0xD70F0000D70F0000D70F0000D70F0000D70F0000D70F0000D70F0000       0x5B
161     S3       0x21           0x00000550          0xD70F0000D70F0000D70F0000D70F0000D70F0000D70F0000D70F0000       0x3F
162     S3       0x21           0x0000056C          0xD70F0000D70F0000D70F0000D70F0000D70F0000D70F0000D70F0000       0x23
163     S3       0x21           0x00000588          0xD70F0000D70F0000D70F0000D70F0000D70F0000D70F0000D70F0000       0x07
164     S3       0x21           0x000005A4          0xD70F0000D70F0000D70F0000D70F0000D70F0000D70F0000D70F0000       0xEB
165     S3       0x21           0x000005C0          0xD70F0000D70F0000D70F0000D70F0000D70F0000D70F0000D70F0000       0xCF
166     S3       0x21           0x000005DC          0xD70F0000D70F0000D70F0000D70F0000D70F0000D70F0000D70F0000       0xB3
167     S3       0x21           0x000005F8          0xD70F0000D70F0000D70F0000D70F0000D70F0000D70F0000D70F0000       0x97
168     S3       0x21           0x00000614          0xD70F0000D70F0000D70F0000D70F0000D70F0000D70F0000D70F0000       0x7A
169     S3       0x21           0x00000630          0xD70F0000D70F0000D70F0000D70F0000D70F0000D70F0000D70F0000       0x5E
170     S3       0x21           0x0000064C          0xD70F0000D70F0000D70F0000D70F0000D70F0000D70F0000D70F0000       0x42
171     S3       0x21           0x00000668          0xD70F0000D70F0000D70F0000D70F0000D70F0000D70F0000D70F0000       0x26
172     S3       0x21           0x00000684          0xD70F0000D70F0000D70F0000D70F0000D70F0000D70F0000D70F0000       0x0A
173     S3       0x21           0x000006A0          0xD70F0000D70F0000D70F0000D70F0000D70F0000D70F0000D70F0000       0xEE
174     S3       0x21           0x000006BC          0xD70F0000D70F0000D70F0000D70F0000D70F0000D70F0000D70F0000       0xD2
175     S3       0x21           0x000006D8          0xD70F0000D70F0000D70F0000D70F0000D70F0000D70F0000D70F0000       0xB6
176     S3       0x21           0x000006F4          0xD70F0000D70F0000D70F0000D70F0000D70F0000D70F0000D70F0000       0x9A
177     S3       0x21           0x00000710          0xD70F0000D70F0000D70F0000D70F0000D70F0000D70F0000D70F0000       0x7D
178     S3       0x21           0x0000072C          0xD70F0000D70F0000D70F0000D70F0000D70F0000D70F0000D70F0000       0x61
179     S3       0x21           0x00000748          0xD70F0000D70F0000D70F0000D70F0000D70F0000D70F0000D70F0000       0x45
180     S3       0x21           0x00000764          0xD70F0000D70F0000D70F0000D70F0000D70F0000D70F0000D70F0000       0x29
181     S3       0x21           0x00000780          0xD70F0000D70F0000D70F0000D70F0000D70F0000D70F000000200021       0xB2
182     S3       0x21           0x0000079C          0x0022002300240025002600272A482B4901602B4880F308882A482B49       0xBD
183     S3       0x21           0x000007B8          0x2B4A2C4B2C4C2D4D01601360256000F07BF82B4A2B4C00231360121D       0xD4
184     S3       0x21           0x000007D4          0xA242FBD3294A2A4C00231360121D641E002CFADC274B284A284C1568       0x4A
185     S3       0x21           0x000007F0          0x2560121D241D5B1E002BF8DC254B264A264C15682560121D241D5B1E       0x3D
186     S3       0x21           0x0000080C          0x002BF8DC234B244A244C15682560121D241D5B1E002BF8DC214B224A       0xBD
187     S3       0x21           0x00000828          0x224C15682560121D241D5B1E002BF8DC00F052FD05F06CFC00BF01BE       0x3C
188     S3       0x21           0x00000844          0xFEE7EFF314807047EFF30580704700BF08ED00E00000FE1FD01EFE1F       0xA6
189     S3       0x21           0x00000860          0x0420054020C528D908200540FFFF000000200540202100000000FE1F       0xF9
190     S3       0x21           0x0000087C          0x00F00120D01EFE1F0000000023000000987F00008803FE1F00000000       0x5C
191     S3       0x21           0x00000898          0x24800000D01EFE1F00000000987F00008803FE1FE200000010040000       0xDA
192     S3       0x21           0x000008B4          0x0000FE1F00B584B0FEE7000000B5002000F08AFB164A106850F00100       0xD4
193     S3       0x21           0x000008D0          0x1060154A4FF07731106830F47F001060500601600021016241628162       0x04
194     S3       0x21           0x000008EC          0xC162016441648164C164016541658165C16501660A4A41668166C166       0x2B
195     S3       0x21           0x00000908          0x106830F4007010604FF008501060012000F0FBFC002000F0F8FC00BD       0x81
196     S3       0x21           0x00000924          0x14ED00E020ED00E00C0008E0B0B5494B9960D86080B179B1002409E0       0x5D
197     S3       0x21           0x00000940          0x35B155F824501DB11A882D8852191A800134A4B2028845689442F1D3       0x68
198     S3       0x21           0x0000095C          0x00221CE09007440F7FF0030717FA04F0D4F10804274107439408085D       0x6F
199     S3       0x21           0x00000978          0x3840085518888018013030F00305441B64000325A5408410085D2843       0xC3
200     S3       0x21           0x00000994          0x0855013292B218888242DFD38207520F032393408208885C18438854       0xCF
201     S3       0x21           0x000009B0          0xB0BDF0B582B0284CE0680090002840D000252E4639E05168A9B351F8       0x4D
202     S3       0x21           0x000009CC          0x260090B3019000272BE0516829B351F8270010B301212171804700F0       0xAA
203     S3       0x21           0x000009E8          0xD9FF2079022100B10121A807400F11FA00F3A168AA08885C18438854       0xB4
204     S3       0x21           0x00000A04          0x2179022001B1012021886918013131F00303CA1A52009040A2688B10       0x13
205     S3       0x21           0x00000A20          0xD15C8143D1540135ADB20137BFB2019A10888742CFD30136B6B2009A       0x89
206     S3       0x21           0x00000A3C          0x10888642C1D302B0F0BD08B904490870704708B902490870704700BF       0x0E
207     S3       0x21           0x00000A58          0x2804FE1F2C04FE1F000010B5034CA37062702170A080002010BD0000       0x4F
208     S3       0x21           0x00000A74          0x3804FE1FF0B581B000900E46224D234C17462978814205D16168B142       0x1C
209     S3       0x21           0x00000A90          0x02D1A16891420ED00098314600F03AF830B90121009A21702A706660       0xF0
210     S3       0x21           0x00000AAC          0xA76003E00021217000E0002001B0F0BD000070B50446134EF0203578       0xA1
211     S3       0x21           0x00000AC8          0x012D02D1204600F06EF870BD10B5521804E003685C1C046014781C70       0xB0
212     S3       0x21           0x00000AE4          0x013A4B1E9342F6D110BD10B5521805E00268541C046012781A701A46       0x1D
213     S3       0x21           0x00000B00          0x531E4A1E9342F5D110BD00BF8803FE1F5004FE1F00B500F0C7F830B9       0x6D
214     S3       0x21           0x00000B1C          0x00F0EDF900F04FF808B900F07DF800BDF0B505460F468C1C0E180220       0x92
215     S3       0x21           0x00000B38          0x00F0DFF9384600F0DCF904E02878241800F0D7F90135E4B2B542F7D1       0x85
216     S3       0x21           0x00000B54          0x204600F0D0F9032000F0CDF9F0BD70B505460C4600F0A8F90228FBD1       0x91
217     S3       0x21           0x00000B70          0x00F0A4F9A04201D9122017E0841C461904E000F09BF9287024180135       0x80
218     S3       0x21           0x00000B8C          0xE4B2B542F7D100F093F9844201D0112006E0102400F08CF9032800D1       0x23
219     S3       0x21           0x00000BA8          0x0024204670BD30B514461D46FFF7BAFF29462046FFF7D1FF30BD10B5       0xD6
220     S3       0x21           0x00000BC4          0x86B0364804AC0290019403208DF80C006B465A20D870324903200222       0x9B
221     S3       0x21           0x00000BE0          0x088001A8FFF776FF69460331481C0122FFF770FF20460621FFF798FF       0x6E
222     S3       0x21           0x00000BFC          0x00246846023000F065F928B9694602A88978005D814201D0132003E0       0x43
223     S3       0x21           0x00000C18          0x0134052CEFD3002006B010BD10B585B06B460220D8701D4901AB0620       0xA2
224     S3       0x21           0x00000C34          0x187003AC00205870029408200880181D0222FFF745FF69460331481D       0x5E
225     S3       0x21           0x00000C50          0x0122FFF73FFF01A902A80122FFF73AFF0DF1050102A80122FFF734FF       0x8B
226     S3       0x21           0x00000C6C          0x20460521FFF75CFF0DF107000121FFF772FF01AB987058B9D81C0290       0xB0
227     S3       0x21           0x00000C88          0x411E02A80122FFF72EFF9DF80600012800D1142005B010BD02010003       0xAA
228     S3       0x21           0x00000CA4          0x5C04FE1F042825D2984B1A611860984A996012EB0031D9605115CA1C       0x2A
229     S3       0x21           0x00000CC0          0x012805D306D0032809D30ED0012015E0914800E09148026004380160       0xAF
230     S3       0x21           0x00000CDC          0x0CE010468F4A1060043A116006E08E4940F203300860033804390860       0x52
231     S3       0x21           0x00000CF8          0x00F02DB870478A490160002070478949016000207047884A11680160       0x8D
232     S3       0x21           0x00000D14          0x0020704710B581B0044685490868C00714D56846FFF7F1FF80B9824A       0x1F
233     S3       0x21           0x00000D30          0x00991068C0F302200130B1FBF0F11068C0F304401030484340082060       0xFB
234     S3       0x21           0x00000D4C          0x002000E0032001B010BDB0B582B0784C2069C0F30361684601296AD3       0xD4
235     S3       0x21           0x00000D68          0x0ED0032903D305D0062906D063E0FFF7C6FF07E0FFF7BFFF04E0FFF7       0x3C
236     S3       0x21           0x00000D84          0xC9FF01E0FFF7C1FF002856D120695F4DC0F3034000990130B1FBF0F0       0x1E
237     S3       0x21           0x00000DA0          0x68602069286868B965490868400051D50868C0F30260012841D325D0       0xF4
238     S3       0x21           0x00000DBC          0x032829D32ED01EE001280DD15E490868400041D50868C0F302600128       0xD0
239     S3       0x21           0x00000DD8          0x31D315D0032819D31ED00EE0022835D157490868400031D50868C0F3       0x74
240     S3       0x21           0x00000DF4          0x0260012821D305D0032809D30ED0062812D01AE001A8FFF780FFB0B9       0x13
241     S3       0x21           0x00000E10          0x4E4910E001A8FFF776FF80B94C490AE001A8FFF76CFF50B94A4904E0       0xE3
242     S3       0x21           0x00000E2C          0x01A8FFF773FF20B9484908684005400F01D103203AE00868C0F30220       0xD1
243     S3       0x21           0x00000E48          0x411E012088400199B1FBF0F3E86802278168394381608168B9438160       0x92
244     S3       0x21           0x00000E64          0x4FF4002182698A43826184694A1094438461846934F0100484618469       0x73
245     S3       0x21           0x00000E80          0xBC43846100244462AC68B3FBF4F3642463431B09B3FBF4F5036965F3       0x4C
246     S3       0x21           0x00000E9C          0x0C03036103690F2464F31C63036183690B4383618169114381610020       0x8A
247     S3       0x21           0x00000EB8          0x02B0B0BD274A1168080004D048698002FCD5C869C0B27047234A1168       0xEF
248     S3       0x21           0x00000ED4          0x926852B13223B1FBF3F153699B0201D40139FAD119B9202004E02120       0xB0
249     S3       0x21           0x00000EF0          0x02E0D169017000207047184A116829B1CA690243CA6148694002FCD5       0x60
250     S3       0x21           0x00000F0C          0x704700BF6004FE1F00A0064004A0044024B004401CC0044038C00440       0x8A
251     S3       0x21           0x00000F28          0x006CDC0200127A007004FE1F004606400846064000400640A8510640       0x5B
252     S3       0x21           0x00000F44          0xAC510640B0510640044106400442064004430640044606406C04FE1F       0x40
253     S3       0x21           0x00000F60          0x6404FE1F704700B584B0FEE700B584B0FEE700B584B0FEE700B584B0       0xE0
254     S3       0x21           0x00000F7C          0xFEE71EF0040F0CBFEFF30880EFF3098000F001B87047806902380078       0xB2
255     S3       0x21           0x00000F98          0x01280BD306D003280CD30ED1102080F311880AE0012080F3148806E0       0x35
256     S3       0x21           0x00000FB4          0x002080F3148802E0002080F31188704700B584B0FEE700B584B0FEE7       0x8B
257     S3       0x21           0x00000FD0          0x00B584B0FEE700B584B0FEE70349044A08431060704710B5044603E0       0x65
258     S3       0x21           0x00000FEC          0x0000FA050CED00E000DF04F01F0001228240600981000348C9B20818       0x64
259     S3       0x21           0x00001008          0x01681143016001E000E100E001DF10BD30B504460D4600DF084904F0       0xB3
260     S3       0x21           0x00001024          0xFC0212F540704018A107C90E15FA01F2FF238B40D943036819401143       0xFB
261     S3       0x21           0x00001040          0x016001E000E100E001DF30BD4C4841F2883101E00168013901600168       0xF0
262     S3       0x21           0x0000105C          0x0029F9D8704710B5474C03E0FFF7F0FF20680138206020680028F7D8       0xE1
263     S3       0x21           0x00001078          0x10BD45F6FF71002000E001308842FCD3704700F059B9000000B53D49       0x20
264     S3       0x21           0x00001094          0x632000F065F9F021632000F059F93A49652000F05DF9F021652000F0       0xBF
265     S3       0x21           0x000010B0          0x51F937496B2000F055F9F0216B2000F049F93449702000F04DF9F021       0x69
266     S3       0x21           0x000010CC          0x702000F041F93149752000F045F9F021752000F039F92E49682000F0       0x54
267     S3       0x21           0x000010E8          0x3DF9F021682000F031F92B496E2000F035F9F0216E2000F029F92849       0xBB
268     S3       0x21           0x00001104          0x742000F02DF9F021742000F021F925497A2000F025F9F0217A2000F0       0xBF
269     S3       0x21           0x00001120          0x19F900BD10B5214940F24220204A886240F242635062CB600B611E4C       0x3D
270     S3       0x21           0x0000113C          0x40F2424323600860106050601B4C4FF4A07020601A4C206850F48070       0x73
271     S3       0x21           0x00001158          0x206010BD00B500F00FF9FFF7DFFFFFF793FFFFF78EFF144A4FF41651       0x94
272     S3       0x21           0x00001174          0x0120FFF77FFC00B1FEE700BD7404FE1F7804FE1FCD730000E9730000       0xAA
273     S3       0x21           0x00001190          0x0F740000357400005B740000057400002B7400005174000077740000       0x7A
274     S3       0x21           0x000011AC          0x14C0044020A0044010D0044020D0044014F10F40006CDC0200000000       0x0F
275     S3       0x21           0x000011C8          0x4448002104E001684900016041680131416041680029F6D03D490868       0x57
276     S3       0x21           0x000011E4          0x0130086070473C48002104E001684900016041680131416041680029       0xAF
277     S3       0x21           0x00001200          0xF6D0354948680130486070473348002104E001684900016041680131       0xDA
278     S3       0x21           0x0000121C          0x416041680029F6D02C4988680130886070472B48002104E001684900       0x18
279     S3       0x21           0x00001238          0x016041680131416041680029F6D02449C8680130C860704722480021       0xE7
280     S3       0x21           0x00001254          0x04E001684900016041680131416041680029F6D01B49086901300861       0xFE
281     S3       0x21           0x00001270          0x70471A48002104E001684900016041680131416041680029F6D01349       0xBB
282     S3       0x21           0x0000128C          0x48690130486170471148002104E00168490001604168013141604168       0x68
283     S3       0x21           0x000012A8          0x0029F6D00A4988690130886170470948002104E00168490001604168       0x0E
284     S3       0x21           0x000012C4          0x0131416041680029F6D00249C8690130C86170478404FE1F7C04FE1F       0xCE
285     S3       0x21           0x000012E0          0x01DF704710B5FFF7AEFA0446FFF7AEFAE10701D5000601D0002001E0       0x74
286     S3       0x21           0x000012FC          0x00DF012010BD10B50C46012800D101DF204610BD000080B90B484FF0       0x14
287     S3       0x21           0x00001318          0xA0610160016851F00041016001680029FCD4016851F0010101600020       0x76
288     S3       0x21           0x00001334          0x02E00128FBD001207047000006E000BF002008E0042008E0082008E0       0x20
289     S3       0x21           0x00001350          0x02DF704710B50446FFF75EFE2046FFF742FE10BD30B504460D4600DF       0xB8
290     S3       0x21           0x0000136C          0x0248036813EB84031D6401E008ED00E001DF30BD30B500DF84490020       0x70
291     S3       0x21           0x00001388          0x087084498448086000204860834A10680002FBD4012010601068C001       0x22
292     S3       0x21           0x000013A4          0xFCD580497D480860012048607E4A10680002FBD4012010601068C001       0xBC
293     S3       0x21           0x000013C0          0xFCD57B497B480860242048607A4A10680002FBD4052010601068C001       0x84
294     S3       0x21           0x000013DC          0xFCD5774977480860774A106810F40000FAD1106075496B4808604FF4       0xA3
295     S3       0x21           0x000013F8          0x80204860012010601068C001FCD56D4D7048286070486860704D7148       0x00
296     S3       0x21           0x00001414          0x28607148714902680A400260C2680A40C26002690A40026142690A40       0x02
297     S3       0x21           0x00001430          0x426182690A4082616A4A13680B40136053680B40536093680B409360       0x00
298     S3       0x21           0x0000144C          0xD3680B40D36093690B409361D3690B40D361D36A0B40D362136B0B40       0x49
299     S3       0x21           0x00001468          0x1363536B0B405363936B0B409363D36B0B40D363136C0B401364936C       0xEF
300     S3       0x21           0x00001484          0x0B409364536D0B405365936F0B409367D36F0B40D367534B1C680C40       0xC5
301     S3       0x21           0x000014A0          0x1C605C680C405C609C680C409C605C6A0C405C629C6A0C409C62DC6B       0x2F
302     S3       0x21           0x000014BC          0x0C40DC639C6D0C409C65DC6E0C40DC661C6F0C401C67DC6F454D0C40       0xD2
303     S3       0x21           0x000014D8          0xDC672C680C402C60434D2C680C402C60424D2C680C402C60414D2C68       0x2A
304     S3       0x21           0x000014F4          0x0C402C60404D2C680C402C603F4D2C680C402C603E4D2C680C402C60       0x16
305     S3       0x21           0x00001510          0x3D4D2C680C402C603C4D2C680C404FF086412C600160C16001614161       0x42
306     S3       0x21           0x0000152C          0x8161116051609160D1609161D161D162116351639163D16311649164       0x66
307     S3       0x21           0x00001548          0x51659167D16719605960996059629962D9639965234DD9661967D967       0x11
308     S3       0x21           0x00001564          0x2960224D2960224D2960224D2960224D2960224D2960224D2960224D       0x9D
309     S3       0x21           0x00001580          0x2960224D2960224D4FF400702860214D2148286042E000BF04D00740       0xC3
310     S3       0x21           0x0000159C          0x04430640010200000043064004420640004206400441064001010100       0x72
311     S3       0x21           0x000015B8          0x00410640144006400100010300460640044606400100010603000102       0xC1
312     S3       0x21           0x000015D4          0x1C4006401300000684500640FFFFFFBFAC5006402C510640AC510640       0x1C
313     S3       0x21           0x000015F0          0xB0510640B8510640BC510640C0510640C4510640CC510640D8510640       0x6C
314     S3       0x21           0x0000160C          0xE451064010D0044000D000400052810001DF002030BD00000749084A       0xAB
315     S3       0x21           0x00001628          0x01200B8813B9137803B9184600230B80137000280CBF012000207047       0x5F
316     S3       0x21           0x00001644          0x4604FE1F4404FE1F30B50C490C4A0D4B0C8801203CB914782CB91C78       0x21
317     S3       0x21           0x00001660          0x1CB90A4D2C7804B9204600240C80074914701C700C7000280CBF0120       0xD5
318     S3       0x21           0x0000167C          0x002030BD3C04FE1F3804FE1F3904FE1F3A04FE1F20B5044D2868E0B9       0x85
319     S3       0x21           0x00001698          0xFFF724FE012808D102E000BF0805FE1FEFF310800146012003E0EFF3       0xAC
320     S3       0x21           0x000016B4          0x108001460020FFF722FE034A106040F30000013003D001E00405FE1F       0x0C
321     S3       0x21           0x000016D0          0x03DF28680130286020BD20B5034D2868D8B9FFF7FFFD012807D101E0       0xD6
322     S3       0x21           0x000016EC          0x1005FE1FEFF310800146012003E0EFF3108001460020FFF7FEFD034A       0xD6
323     S3       0x21           0x00001708          0x106040F30000013003D001E00C05FE1F03DF28680130286020BD20B5       0x2C
324     S3       0x21           0x00001724          0x034D2868D8B9FFF7DBFD012807D101E01805FE1FEFF3108001460120       0x6E
325     S3       0x21           0x00001740          0x03E0EFF3108001460020FFF7DAFD034A106040F30000013003D001E0       0x29
326     S3       0x21           0x0000175C          0x1405FE1F03DF28680130286020BD20B5034D2868D8B9FFF7B7FD0128       0x14
327     S3       0x21           0x00001778          0x07D101E02005FE1FEFF310800146012003E0EFF3108001460020FFF7       0xC8
328     S3       0x21           0x00001794          0xB6FD034A106040F30000013003D001E01C05FE1F03DF286801302860       0x42
329     S3       0x21           0x000017B0          0x20BD20B5034D2868D8B9FFF793FD012807D101E02805FE1FEFF31080       0xD0
330     S3       0x21           0x000017CC          0x0146012003E0EFF3108001460020FFF792FD034A106040F300000130       0x31
331     S3       0x21           0x000017E8          0x03D001E02405FE1F03DF28680130286020BD20B5034D2868D8B9FFF7       0xA1
332     S3       0x21           0x00001804          0x6FFD012807D101E03005FE1FEFF310800146012003E0EFF310800146       0xAC
333     S3       0x21           0x00001820          0x0020FFF76EFD034A106040F30000013003D001E02C05FE1F03DF2868       0x90
334     S3       0x21           0x0000183C          0x0130286020BD20B5034D2868D8B9FFF74BFD012807D101E03805FE1F       0x34
335     S3       0x21           0x00001858          0xEFF310800146012003E0EFF3108001460020FFF74AFD034A106040F3       0xAB
336     S3       0x21           0x00001874          0x0000013003D001E03405FE1F03DF28680130286020BD064841680139       0xDE
337     S3       0x21           0x00001890          0x4160016841F30001013106D0406820B902E000BF0405FE1F02DF7047       0x0F
338     S3       0x21           0x000018AC          0x0649074B0A68013A0A601A6842F30002013208D0086830B904E000BF       0xA2
339     S3       0x21           0x000018C8          0x1005FE1F0C05FE1F02DF70470649074B0A68013A0A601A6842F30002       0x95
340     S3       0x21           0x000018E4          0x013208D0086830B904E000BF1805FE1F1405FE1F02DF70470649074B       0x32
341     S3       0x21           0x00001900          0x0A68013A0A601A6842F30002013208D0086830B904E000BF2005FE1F       0xAC
342     S3       0x21           0x0000191C          0x1C05FE1F02DF70470649074B0A68013A0A601A6842F30002013208D0       0x57
343     S3       0x21           0x00001938          0x086830B904E000BF2805FE1F2405FE1F02DF70470649074B0A68013A       0x1B
344     S3       0x21           0x00001954          0x0A601A6842F30002013208D0086830B904E000BF3005FE1F2C05FE1F       0xA7
345     S3       0x21           0x00001970          0x02DF70470649074B0A68013A0A601A6842F30002013208D0086830B9       0xE8
346     S3       0x21           0x0000198C          0x04E000BF3805FE1F3405FE1F02DF704730B5C94C206800280CBF0120       0xB8
347     S3       0x21           0x000019A8          0x0020FFF74CF8C64D286800280CBF01200020FFF744F8C34908680028       0x16
348     S3       0x21           0x000019C4          0x0CBF01200020FFF73CF8C049086800280CBF01200020FFF734F8BD49       0xF6
349     S3       0x21           0x000019E0          0x086800280CBF01200020FFF72CF8BA49086800280CBF01200020FFF7       0x8A
350     S3       0x21           0x000019FC          0x24F8B749086800280CBF01200020FFF71CF8B449086800280CBF0120       0x7E
351     S3       0x21           0x00001A18          0x0020FFF714F8B149086800280CBF01200020FFF70CF8AE4908680028       0x63
352     S3       0x21           0x00001A34          0x0CBF01200020FFF704F8AB49086800280CBF01200020FEF7FCFFA849       0x19
353     S3       0x21           0x00001A50          0x086800280CBF01200020FEF7F4FFA549086800280CBF01200020FEF7       0x61
354     S3       0x21           0x00001A6C          0xECFFA249086800280CBF01200020FEF7E4FF9F49086800280CBF0120       0x9A
355     S3       0x21           0x00001A88          0x0020FEF7DCFF9C49086800280CBF01200020FEF7D4FF994908680028       0x81
356     S3       0x21           0x00001AA4          0x0CBF01200020FEF7CCFF9649086800280CBF01200020FEF7C4FF9349       0x3D
357     S3       0x21           0x00001AC0          0x086800280CBF01200020FEF7BCFF9049086800280CBF01200020FEF7       0x3E
358     S3       0x21           0x00001ADC          0xB4FF8D49086800280CBF01200020FEF7ACFF8A49086800280CBF0120       0xC4
359     S3       0x21           0x00001AF8          0x0020FEF7A4FF8749086800280CBF01200020FEF79CFF844908680028       0xAB
360     S3       0x21           0x00001B14          0x0CBF01200020FEF794FF8149086800280CBF01200020FEF78CFF7E49       0x66
361     S3       0x21           0x00001B30          0x086800280CBF01200020FEF784FF7B49086800280CBF01200020FEF7       0x1A
362     S3       0x21           0x00001B4C          0x7CFF7849086800280CBF01200020FEF774FF7549086800280CBF0120       0xED
363     S3       0x21           0x00001B68          0x0020FEF76CFF7249086800280CBF01200020FEF764FF6F4908680028       0xD4
364     S3       0x21           0x00001B84          0x0CBF01200020FEF75CFF6C49086800280CBF01200020FEF754FF6949       0x90
365     S3       0x21           0x00001BA0          0x086800280CBF01200020FEF74CFF6649086800280CBF01200020FEF7       0xF7
366     S3       0x21           0x00001BBC          0x44FF6349086800280CBF01200020FEF73CFF6049086800280CBF0120       0x17
367     S3       0x21           0x00001BD8          0x0020FEF734FF5D49086800280CBF01200020FEF72CFF5A4908680028       0xFE
368     S3       0x21           0x00001BF4          0x0CBF01200020FEF724FF5749086800280CBF01200020FEF71CFF5449       0xBA
369     S3       0x21           0x00001C10          0x086800280CBF01200020FEF714FF5149086800280CBF01200020FEF7       0xD3
370     S3       0x21           0x00001C2C          0x0CFF4E49086800280CBF01200020FEF704FF4B49086800280CBF0120       0x40
371     S3       0x21           0x00001C48          0x0020FEF7FCFE4849086800280CBF01200020FEF7F4FE454908680028       0x29
372     S3       0x21           0x00001C64          0x0CBF01200020FEF7ECFE4249086800280CBF01200020FEF7E4FE3F49       0xE5
373     S3       0x21           0x00001C80          0x086800280CBF01200020FEF7DCFE3C49086800280CBF01200020FEF7       0xB1
374     S3       0x21           0x00001C9C          0xD4FE3949086800280CBF01200020FEF7CCFE3649086800280CBF0120       0x6C
375     S3       0x21           0x00001CB8          0x0020FEF7C4FE3349086865E00805FE1F1005FE1F1805FE1F2005FE1F       0x2A
376     S3       0x21           0x00001CD4          0x2805FE1F3005FE1F3805FE1F4005FE1F4805FE1F5005FE1F5805FE1F       0x40
377     S3       0x21           0x00001CF0          0x6005FE1F6805FE1F7005FE1F7805FE1F8005FE1F8805FE1F9005FE1F       0x9C
378     S3       0x21           0x00001D0C          0x9805FE1FA005FE1FA805FE1FB005FE1FB805FE1FC005FE1FC805FE1F       0xF7
379     S3       0x21           0x00001D28          0xD005FE1FD805FE1FE005FE1FE805FE1FF005FE1FF805FE1F0006FE1F       0x52
380     S3       0x21           0x00001D44          0x0806FE1F1006FE1F1806FE1F2006FE1F2806FE1F3006FE1F3806FE1F       0xA8
381     S3       0x21           0x00001D60          0x4006FE1F4806FE1F5006FE1F5806FE1F6006FE1F6806FE1F7006FE1F       0x04
382     S3       0x21           0x00001D7C          0x7806FE1F8006FE1F8806FE1F9006FE1F9806FE1F00280CBF01200020       0xBA
383     S3       0x21           0x00001D98          0xFEF755FE7849086800280CBF01200020FEF74DFE7549086800280CBF       0x1B
384     S3       0x21           0x00001DB4          0x01200020FEF745FE7249086800280CBF01200020FEF73DFE6F490868       0xDD
385     S3       0x21           0x00001DD0          0x00280CBF01200020FEF735FE6C49086800280CBF01200020FEF72DFE       0x1C
386     S3       0x21           0x00001DEC          0x6949086800280CBF01200020FEF725FE6649086800280CBF01200020       0x14
387     S3       0x21           0x00001E08          0xFEF71DFE6349086800280CBF01200020FEF715FE6049086800280CBF       0x44
388     S3       0x21           0x00001E24          0x01200020FEF70DFE5D49086800280CBF01200020FEF705FE5A490868       0x06
389     S3       0x21           0x00001E40          0x00280CBF01200020FEF7FDFD5749086800280CBF01200020FEF7F5FD       0x32
390     S3       0x21           0x00001E5C          0x5449086800280CBF01200020FEF7EDFD5149086800280CBF01200020       0x06
391     S3       0x21           0x00001E78          0xFEF7E5FD4E4900202060286008604D4908604D4908604D4908604D49       0xBA
392     S3       0x21           0x00001E94          0x08604D4908604D4908604D4908604D4908604D4908604D4908604D49       0x3A
393     S3       0x21           0x00001EB0          0x08604D4908604D4908604D4908604D4908604D4908604D4908604D49       0x1E
394     S3       0x21           0x00001ECC          0x08604D4908604D4908604D4908604D4908604D4908604D4908604D49       0x02
395     S3       0x21           0x00001EE8          0x08604D4908604D4908604D4908604D4908604D4908604D4908604D49       0xE6
396     S3       0x21           0x00001F04          0x08604D4908604D4908604D4908604D4908604D4908604D4908604D49       0xC9
397     S3       0x21           0x00001F20          0x08604D4908604D4908604D4908604D4908604D4908604D4908604D49       0xAD
398     S3       0x21           0x00001F3C          0x08604D4908604D4908600E4908600E4908600E4908600E4908600E49       0xCC
399     S3       0x21           0x00001F58          0x08600E4908600E4908600E4908600E4908600E4908600E4908600E49       0x2E
400     S3       0x21           0x00001F74          0x08600E4908600E49086030BDA006FE1FA806FE1FB006FE1FB806FE1F       0x3C
401     S3       0x21           0x00001F90          0xC006FE1FC806FE1FD006FE1FD806FE1FE006FE1FE806FE1FF006FE1F       0x52
402     S3       0x21           0x00001FAC          0xF806FE1F0007FE1F0807FE1F1805FE1F2005FE1F2805FE1F3005FE1F       0x90
403     S3       0x21           0x00001FC8          0x3805FE1F4005FE1F4805FE1F5005FE1F5805FE1F6005FE1F6805FE1F       0xD9
404     S3       0x21           0x00001FE4          0x7005FE1F7805FE1F8005FE1F8805FE1F9005FE1F9805FE1FA005FE1F       0x35
405     S3       0x21           0x00002000          0xA805FE1FB005FE1FB805FE1FC005FE1FC805FE1FD005FE1FD805FE1F       0x90
406     S3       0x21           0x0000201C          0xE005FE1FE805FE1FF005FE1FF805FE1F0006FE1F0806FE1F1006FE1F       0xE9
407     S3       0x21           0x00002038          0x1806FE1F2006FE1F2806FE1F3006FE1F3806FE1F4006FE1F4806FE1F       0x41
408     S3       0x21           0x00002054          0x5006FE1F5806FE1F6006FE1F6806FE1F7006FE1F7806FE1F8006FE1F       0x9D
409     S3       0x21           0x00002070          0x8806FE1F9006FE1F9806FE1FF0B581B0D64F0021384604F0C8F8D54A       0xC8
410     S3       0x21           0x0000208C          0x1678082E00D9082604F083FA384604F0A0FCFFF7D5FAFEF7D4FCFFF7       0x68
411     S3       0x21           0x000020A8          0xBDFAFEF7D0FCCD4804F030FB00246AE0E5B22946384604F0ACF8C94B       0xCC
412     S3       0x21           0x000020C4          0x1888C94B010018BF01211A88003A0CBF002101F0010147F6FF728242       0x1F
413     S3       0x21           0x000020E0          0x8CBF01220022114026D0C14A1178012904BFC0F5004080B2002104F0       0x4A
414     S3       0x21           0x000020FC          0x70FB2146002004F019F87FF00501002204F06DFBE0B2002104F0F3FA       0x44
415     S3       0x21           0x00002118          0x0521002004F0FDFA012004F000FB00280CBF01200020FEF78EFC04F0       0xBD
416     S3       0x21           0x00002134          0x17FB23E0284604F0E0FAAC4A1178A94A01294FF40041108803D18842       0xE2
417     S3       0x21           0x00002150          0x03D0002002E08842FBD00120002104F039FB0A21002004F0D8FA0120       0x67
418     S3       0x21           0x0000216C          0x04F01AFB00280CBF01200020FEF769FC04F002FB00060CBF01200020       0xB7
419     S3       0x21           0x00002188          0xFEF761FC0134B44292D300240BE0E1B20091384604F03DF8051E03D1       0x82
420     S3       0x21           0x000021A4          0x0098002104F03EFC0134B442F1D3FFF74BFAFEF74AFCFFF733FAFEF7       0xB5
421     S3       0x21           0x000021C0          0x46FC884804F0A6FA002429E0E1B20091384604F022F8054600980021       0x76
422     S3       0x21           0x000021DC          0x04F08FFAEDB9834A01201178012900D12846294604F0F0FA0A212846       0xF8
423     S3       0x21           0x000021F8          0x04F08FFA012004F0D1FA00280CBF01200020FEF720FC04F0B9FA0006       0x76
424     S3       0x21           0x00002214          0x0CBF01200020FEF718FC0134B442D3D300240BE0E1B20091384603F0       0x1E
425     S3       0x21           0x00002230          0xF4FF051E03D16F49009804F0F5FB0134B442F1D3FFF702FAFEF701FC       0x9B
426     S3       0x21           0x0000224C          0xFFF7EAF9FEF7FDFB634804F05DFA002434E0E1B2384603F0DAFF614A       0xF4
427     S3       0x21           0x00002268          0x108860B35DBB604A60481178012901D147F6B960294604F0AEFA2146       0xF2
428     S3       0x21           0x00002284          0x284603F057FF7FF005012A4604F0ABFAE0B2294604F031FA05212846       0x4F
429     S3       0x21           0x000022A0          0x04F03BFA012004F03EFA00280CBF01200020FEF7CCFB04F055FA0006       0x6D
430     S3       0x21           0x000022BC          0x0CBF01200020FEF7C4FB0134B442C8D300240AE0E1B20091384603F0       0xD7
431     S3       0x21           0x000022D8          0xA0FF18B94649009804F0A2FB0134B442F2D3FFF7AFF9FEF7AEFBFFF7       0x9A
432     S3       0x21           0x000022F4          0x97F9FEF7AAFB3A4804F00AFA002435E0E1B2384603F087FF374A0546       0x95
433     S3       0x21           0x00002310          0x108860B35DBB364A37481178012901D147F23430294604F05AFA2146       0xA9
434     S3       0x21           0x0000232C          0x284603F003FF7FF005012A4604F057FAE0B2294604F0DDF905212846       0xA3
435     S3       0x21           0x00002348          0x04F0E7F9012004F0EAF900280CBF01200020FEF778FB04F001FA0006       0x16
436     S3       0x21           0x00002364          0x0CBF01200020FEF770FB0134B442C7D300240AE0E1B20091384603F0       0x83
437     S3       0x21           0x00002380          0x4CFF18B91D49009804F04EFB0134B442F2D3FFF75BF9FEF75AFBFFF7       0x6A
438     S3       0x21           0x0000239C          0x43F9FEF756FB104804F0B6F9002442E0E1B2384603F033FF0D4A0546       0x84
439     S3       0x21           0x000023B8          0x1088C8B3290037D10E4804F00CFA2146284603F0B5FE7FF005012A46       0x0F
440     S3       0x21           0x000023D4          0x04F009FAE0B211E0B08500000F07FE1F80F0FA021207FE1F1007FE1F       0x2F
441     S3       0x21           0x000023F0          0x0C07FE1F47010000CC0C000000400000294604F07CF90521284604F0       0xDB
442     S3       0x21           0x0000240C          0x86F9012004F089F900280CBF01200020FEF717FB04F0A0F900060CBF       0xFF
443     S3       0x21           0x00002428          0x01200020FEF70FFB0134B442BAD300240AE0E1B20091384603F0EBFE       0x0E
444     S3       0x21           0x00002444          0x18B96649009804F0EDFA0134B442F2D3FFF7FAF8FEF7F9FAFFF7E2F8       0xF3
445     S3       0x21           0x00002460          0xFEF7F5FA5F4804F055F9002435E0E1B2384603F0D2FE5C4A05461088       0xF7
446     S3       0x21           0x0000247C          0x60B35DBB5A4A57481178012901D14FF4A470294604F0A5F921462846       0x1E
447     S3       0x21           0x00002498          0x03F04EFE7FF005012A4604F0A2F9E0B2294604F028F90521284604F0       0xD1
448     S3       0x21           0x000024B4          0x32F9012004F035F900280CBF01200020FEF7C3FA04F04CF900060CBF       0xA8
449     S3       0x21           0x000024D0          0x01200020FEF7BBFA0134B442C7D300240BE0E1B20091384603F097FE       0x01
450     S3       0x21           0x000024EC          0x20B94FF40041009804F098FA0134B442F1D3FFF7A5F8FEF7A4FAFFF7       0x48
451     S3       0x21           0x00002508          0x8DF8FEF7A0FA354804F000F9002429E0E1B20091384603F07CFE0546       0xAC
452     S3       0x21           0x00002524          0x0098002104F0E9F828001CD12E4A1178012900D10846294604F04AF9       0x02
453     S3       0x21           0x00002540          0x0A21284604F0E9F8012004F02BF900280CBF01200020FEF77AFA04F0       0x41
454     S3       0x21           0x0000255C          0x13F900060CBF01200020FEF772FA0134B442D3D304F04CFAFFF76AF8       0x7B
455     S3       0x21           0x00002578          0xFEF769FAFFF752F8FEF765FA174804F0C5F8002412E0E5B229463846       0xAB
456     S3       0x21           0x00002594          0x03F041FE2146284604F0AFF8134A2946107804F015F90A21284604F0       0xA0
457     S3       0x21           0x000025B0          0xB4F80134B442EAD3304604F0F3F800280CBF01200020FEF742FA04F0       0xC7
458     S3       0x21           0x000025CC          0xDBF800060CBF01200020FEF73AFA01B0F0BD00BFB87E000080F0FA02       0x20
459     S3       0x21           0x000025E8          0x1007FE1F0C07FE1F0D07FE1FF0B5694D0021284603F00DFE674A1478       0x17
460     S3       0x21           0x00002604          0x082C00D9082403F0C8FF284604F0E5F9FFF71AF8FEF719FAFFF702F8       0x81
461     S3       0x21           0x00002620          0xFEF715FA5F4804F075F8002643E0F1B2284603F0F2FD5C4B18885C4B       0x62
462     S3       0x21           0x0000263C          0x010018BF01211A88003A0CBF002101F00101584A82428CBF01220022       0xD1
463     S3       0x21           0x00002658          0x11402BD0554A1178012902D15249081A80B2002104F0B7F831460020       0xA5
464     S3       0x21           0x00002674          0x03F060FD7FF00501002204F0B4F8F0B2002104F03AF86421002004F0       0x3B
465     S3       0x21           0x00002690          0x44F8012004F047F800280CBF01200020FEF7D5F904F05EF800060CBF       0x86
466     S3       0x21           0x000026AC          0x01200020FEF7CDF90136A642B9D3002603E0F0B204F0ECF90136A642       0xC2
467     S3       0x21           0x000026C8          0xF9D3FEF7BFFFFEF7BEF9FEF7A7FFFEF7BAF9324804F01AF8002612E0       0xEA
468     S3       0x21           0x000026E4          0xF7B23946284603F096FD3146384604F004F8304A3946107804F06AF8       0xFC
469     S3       0x21           0x00002700          0x0A21384604F009F80136A642EAD3204604F048F800280CBF01200020       0x6F
470     S3       0x21           0x0000271C          0xFEF797F904F030F800060CBF01200020FEF78FF904F06CF9FEF78AFF       0x94
471     S3       0x21           0x00002738          0xFEF789F9FEF772FFFEF785F9174803F0E5FF002612E0F7B239462846       0x4B
472     S3       0x21           0x00002754          0x03F061FD3146384603F0CFFF154A3946107804F035F80A21384603F0       0x39
473     S3       0x21           0x00002770          0xD4FF0136A642EAD3204604F013F800280CBF01200020FEF762F903F0       0xBC
474     S3       0x21           0x0000278C          0xFBFF00060CBF01200020FEF75AF9F0BDB08500000F07FE1F80F0FA02       0x56
475     S3       0x21           0x000027A8          0x1207FE1F1007FE1FFF7F00000C07FE1F0D07FE1FF0B5DF4D00212846       0x66
476     S3       0x21           0x000027C4          0x03F029FDDD4A1478082C00D9082403F0E4FE284604F001F9FEF736FF       0x93
477     S3       0x21           0x000027E0          0xFEF735F9FEF71EFFFEF731F9D54803F091FF002669E0F7B239462846       0xDE
478     S3       0x21           0x000027FC          0x03F00DFDD14B1888D14B010018BF01211A88003A0CBF002101F00101       0x31
479     S3       0x21           0x00002818          0xCD4A82428CBF01220022114026D0CB4A1178012902D1C849081A80B2       0xEC
480     S3       0x21           0x00002834          0x002103F0D2FF3146002003F07BFC7FF00501002203F0CFFFF0B20021       0x81
481     S3       0x21           0x00002850          0x03F055FF6421002003F05FFF012003F062FF00280CBF01200020FEF7       0x8B
482     S3       0x21           0x0000286C          0xF0F803F079FF23E0384603F042FFB64A1178B24A01294FF400411088       0x77
483     S3       0x21           0x00002888          0x03D1884203D0002002E08842FBD00120002103F09BFF0A21002003F0       0x19
484     S3       0x21           0x000028A4          0x3AFF012003F07CFF00280CBF01200020FEF7CBF803F064FF00060CBF       0x37
485     S3       0x21           0x000028C0          0x01200020FEF7C3F80136A64293D3002603E0F0B204F0E2F80136A642       0xE8
486     S3       0x21           0x000028DC          0xF9D3FEF7B5FEFEF7B4F8FEF79DFEFEF7B0F8954803F010FF002612E0       0xA1
487     S3       0x21           0x000028F8          0xF7B23946284603F08CFC3146384603F0FAFE934A3946107803F060FF       0x97
488     S3       0x21           0x00002914          0x0A21384603F0FFFE0136A642EAD3204603F03EFF00280CBF01200020       0x62
489     S3       0x21           0x00002930          0xFEF78DF803F026FF00060CBF01200020FEF785F8002604E08449F0B2       0xF6
490     S3       0x21           0x0000294C          0x04F06CF80136A642F8D3FEF779FEFEF778F8FEF761FEFEF774F87748       0xE2
491     S3       0x21           0x00002968          0x03F0D4FE002633E0F1B2284603F051FC744A108858B3754A76481178       0x97
492     S3       0x21           0x00002984          0x012901D145F6FF70002103F026FF3146002003F0CFFB7FF005010022       0x67
493     S3       0x21           0x000029A0          0x03F023FFF0B2002103F0A9FE6421002003F0B3FE012003F0B6FE0028       0x6A
494     S3       0x21           0x000029BC          0x0CBF01200020FEF744F803F0CDFE00060CBF01200020FEF73CF80136       0x8C
495     S3       0x21           0x000029D8          0xA642C9D3002603E0F0B204F05BF80136A642F9D3FEF72EFEFEF72DF8       0x41
496     S3       0x21           0x000029F4          0xFEF716FEFEF729F8514803F089FE002612E0F7B23946284603F005FC       0xED
497     S3       0x21           0x00002A10          0x3146384603F073FE4F4A3946107803F0D9FE0A21384603F078FE0136       0x98
498     S3       0x21           0x00002A2C          0xA642EAD3204603F0B7FE00280CBF01200020FEF706F803F09FFE0006       0x18
499     S3       0x21           0x00002A48          0x0CBF01200020FDF7FEFF002604E0F0B2002103F0E5FF0136A642F8D3       0xE1
500     S3       0x21           0x00002A64          0xFEF7F2FDFDF7F1FFFEF7DAFDFDF7EDFF334803F04DFE002617E0F7B2       0x5D
501     S3       0x21           0x00002A80          0x3946284603F0C9FB3146384603F037FE304A01201178012900D10020       0x34
502     S3       0x21           0x00002A9C          0xF7B2394603F098FE0A21384603F037FE0136A642E5D3204603F076FE       0xF2
503     S3       0x21           0x00002AB8          0x00280CBF01200020FDF7C5FF03F05EFE00060CBF01200020FDF7BDFF       0xFF
504     S3       0x21           0x00002AD4          0x002603E0F0B203F0DFFF0136A642F9D3FEF7B2FDFDF7B1FFFEF79AFD       0xA5
505     S3       0x21           0x00002AF0          0xFDF7ADFF134803F00DFE002612E0F7B23946284603F089FB31463846       0xB1
506     S3       0x21           0x00002B0C          0x03F0F7FD114A3946107803F05DFE0A21384603F0FCFD0136A642EAD3       0x9F
507     S3       0x21           0x00002B28          0x204603F03BFE00280CBF01200020FDF78AFF11E0B08500000F07FE1F       0xEF
508     S3       0x21           0x00002B44          0x80F0FA021207FE1F1007FE1FFF7F00000C07FE1F0D07FE1F00200000       0x9A
509     S3       0x21           0x00002B60          0x03F010FE00060CBF01200020FDF76FFF002605E04FF40041F0B203F0       0xBA
510     S3       0x21           0x00002B7C          0x55FF0136A642F7D3FEF762FDFDF761FFFEF74AFDFDF75DFF504803F0       0x3B
511     S3       0x21           0x00002B98          0xBDFD002617E0F7B23946284603F039FB3146384603F0A7FD4A4A0020       0x47
512     S3       0x21           0x00002BB4          0x1178012900D10846F7B2394603F008FE0A21384603F0A7FD0136A642       0xAD
513     S3       0x21           0x00002BD0          0xE5D3204603F0E6FD00280CBF01200020FDF735FF03F0CEFD00060CBF       0x04
514     S3       0x21           0x00002BEC          0x01200020FDF72DFF002603E0F0B203F04FFF0136A642F9D3FEF722FD       0x7B
515     S3       0x21           0x00002C08          0xFDF721FFFEF70AFDFDF71DFF304803F07DFD002612E0F7B239462846       0xF7
516     S3       0x21           0x00002C24          0x03F0F9FA3146384603F067FD2B4A3946107803F0CDFD0A21384603F0       0x87
517     S3       0x21           0x00002C40          0x6CFD0136A642EAD3204603F0ABFD00280CBF01200020FDF7FAFE03F0       0x19
518     S3       0x21           0x00002C5C          0x93FD00060CBF01200020FDF7F2FE03F0CFFEFEF7EDFCFDF7ECFEFEF7       0x5F
519     S3       0x21           0x00002C78          0xD5FCFDF7E8FE164803F048FD002612E0F7B23946284603F0C4FA3146       0x23
520     S3       0x21           0x00002C94          0x384603F032FD114A3946107803F098FD0A21384603F037FD0136A642       0xA5
521     S3       0x21           0x00002CB0          0xEAD3204603F076FD00280CBF01200020FDF7C5FE03F05EFD00060CBF       0x6F
522     S3       0x21           0x00002CCC          0x01200020FDF7BDFEF0BD00BF80F0FA020C07FE1F0D07FE1FF0B5DA4D       0xF1
523     S3       0x21           0x00002CE8          0x0021284603F095FAD84A1478082C00D9082403F050FC284603F06DFE       0xC7
524     S3       0x21           0x00002D04          0xFEF7A2FCFDF7A1FEFEF78AFCFDF79DFED04803F0FDFC002669E0F7B2       0x61
525     S3       0x21           0x00002D20          0x3946284603F079FACC4B1888CC4B010018BF01211A88003A0CBF0021       0xAE
526     S3       0x21           0x00002D3C          0x01F00101C84A82428CBF01220022114026D0C64A1178012902D1C349       0x33
527     S3       0x21           0x00002D58          0x081A80B2002103F03EFD3146002003F0E7F97FF00501002203F03BFD       0x8A
528     S3       0x21           0x00002D74          0xF0B2002103F0C1FC6421002003F0CBFC012003F0CEFC00280CBF0120       0x79
529     S3       0x21           0x00002D90          0x0020FDF75CFE03F0E5FC23E0384603F0AEFCB14A1178AD4A01294FF4       0xD9
530     S3       0x21           0x00002DAC          0x0041108803D1884203D0002002E08842FBD00120002103F007FD0A21       0xC0
531     S3       0x21           0x00002DC8          0x002003F0A6FC012003F0E8FC00280CBF01200020FDF737FE03F0D0FC       0x20
532     S3       0x21           0x00002DE4          0x00060CBF01200020FDF72FFE0136A64293D3002603E0F0B203F04EFE       0x2B
533     S3       0x21           0x00002E00          0x0136A642F9D3FEF721FCFDF720FEFEF709FCFDF71CFE904803F07CFC       0x56
534     S3       0x21           0x00002E1C          0x002612E0F7B23946284603F0F8F93146384603F066FC8E4A39461078       0xD9
535     S3       0x21           0x00002E38          0x03F0CCFC0A21384603F06BFC0136A642EAD3204603F0AAFC00280CBF       0xEC
536     S3       0x21           0x00002E54          0x01200020FDF7F9FD03F092FC00060CBF01200020FDF7F1FD00260DE0       0xA9
537     S3       0x21           0x00002E70          0xF7B23946284603F0D0F97D4A107820B97C4A7849384603F0E8FD0136       0xB2
538     S3       0x21           0x00002E8C          0xA642EFD3FEF7DCFBFDF7DBFDFEF7C4FBFDF7D7FD6D4803F037FC0026       0x65
539     S3       0x21           0x00002EA8          0x32E0F1B2284603F0B4F96F4A107850BB6B4A6E481178012901D145F6       0xCE
540     S3       0x21           0x00002EC4          0xFF70002103F089FC304603F058F97FF00501002203F087FCF0B20021       0x5A
541     S3       0x21           0x00002EE0          0x03F00DFC6421002003F017FC012003F01AFC00280CBF01200020FDF7       0xD7
542     S3       0x21           0x00002EFC          0xA8FD03F031FC00060CBF01200020FDF7A0FD0136A642CAD3002603E0       0x87
543     S3       0x21           0x00002F18          0xF0B203F0BFFD0136A642F9D3FEF792FBFDF791FDFEF77AFBFDF78DFD       0x6F
544     S3       0x21           0x00002F34          0x484803F0EDFB002612E0F7B23946284603F069F93146384603F0D7FB       0x53
545     S3       0x21           0x00002F50          0x464A3946107803F03DFC0A21384603F0DCFB0136A642EAD3204603F0       0xF4
546     S3       0x21           0x00002F6C          0x1BFC00280CBF01200020FDF76AFD03F003FC00060CBF01200020FDF7       0xA5
547     S3       0x21           0x00002F88          0x62FD00260DE0F7B23946284603F041F9354A107820B9314938460022       0xF8
548     S3       0x21           0x00002FA4          0x03F059FD0136A642EFD3FEF74DFBFDF74CFDFEF735FBFDF748FD03F0       0x16
549     S3       0x21           0x00002FC0          0xEEFA254803F0A6FB00262AE0F7B23946284603F022F9264A107808BB       0x77
550     S3       0x21           0x00002FDC          0x3846002103F08DFB204A01201178012900D10020002103F0EFFB0A21       0x61
551     S3       0x21           0x00002FF8          0x002003F08EFB012003F0D0FB00280CBF01200020FDF71FFD03F0B8FB       0x52
552     S3       0x21           0x00003014          0x00060CBF01200020FDF717FD0136A642D2D3002603E0F0B203F036FD       0xEB
553     S3       0x21           0x00003030          0x0136A642F9D3FEF709FBFDF708FDFEF7F1FAFDF704FD044803F064FB       0x2E
554     S3       0x21           0x0000304C          0x002626E0B08500000F07FE1F80F0FA021207FE1F1007FE1FFF7F0000       0x7A
555     S3       0x21           0x00003068          0x0C07FE1F0D07FE1F0E07FE1F00200000F7B23946284603F0CCF83146       0xCF
556     S3       0x21           0x00003084          0x384603F03AFB6E4A3946107803F0A0FB0A21384603F03FFB0136A642       0x42
557     S3       0x21           0x000030A0          0xEAD3204603F07EFB00280CBF01200020FDF7CDFC03F066FB00060CBF       0x69
558     S3       0x21           0x000030BC          0x01200020FDF7C5FC00260EE0F7B23946284603F0A4F85D4A107828B9       0xB3
559     S3       0x21           0x000030D8          0x4FF400423846511E03F0BBFC0136A642EED3FEF7AFFAFDF7AEFCFEF7       0xA9
560     S3       0x21           0x000030F4          0x97FAFDF7AAFC03F050FA534803F008FB00262AE0F7B23946284603F0       0x08
561     S3       0x21           0x00003110          0x84F84D4A107808BB3846002103F0EFFA4B4A00201178012900D10846       0x3D
562     S3       0x21           0x0000312C          0x002103F051FB0A21002003F0F0FA012003F032FB00280CBF01200020       0x84
563     S3       0x21           0x00003148          0xFDF781FC03F01AFB00060CBF01200020FDF779FC0136A642D2D30026       0x87
564     S3       0x21           0x00003164          0x03E0F0B203F098FC0136A642F9D3FEF76BFAFDF76AFCFEF753FAFDF7       0x68
565     S3       0x21           0x00003180          0x66FC324803F0C6FA002612E0F7B23946284603F042F83146384603F0       0xDB
566     S3       0x21           0x0000319C          0xB0FA294A3946107803F016FB0A21384603F0B5FA0136A642EAD32046       0x5C
567     S3       0x21           0x000031B8          0x03F0F4FA00280CBF01200020FDF743FC03F0DCFA00060CBF01200020       0xD2
568     S3       0x21           0x000031D4          0xFDF73BFC03F018FCFEF736FAFDF735FCFEF71EFAFDF731FC174803F0       0xDD
569     S3       0x21           0x000031F0          0x91FA002612E0F7B23946284603F00DF83146384603F07BFA0E4A3946       0x58
570     S3       0x21           0x0000320C          0x107803F0E1FA0A21384603F080FA0136A642EAD3204603F0BFFA0028       0x1E
571     S3       0x21           0x00003228          0x0CBF01200020FDF70EFC03F0A7FA00060CBF01200020FDF706FCF0BD       0x31
572     S3       0x21           0x00003244          0x0D07FE1F0E07FE1F80F0FA020C07FE1FF0B587B0D44ED548002102F0       0x3B
573     S3       0x21           0x00003260          0xDCFFD44A1778082F00D9082703F097F9CF4803F0B4FBFEF7E9F9FDF7       0x7E
574     S3       0x21           0x0000327C          0xE8FBFEF7D1F9FDF7E4FBCC4803F044FA002569E0C748ECB2214602F0       0x02
575     S3       0x21           0x00003298          0xC0FFC84B1888C84B010018BF01211A88003A0CBF002101F00101C44A       0xCC
576     S3       0x21           0x000032B4          0x82428CBF01220022114026D0C14A1178012902D1BE49081A80B20021       0x50
577     S3       0x21           0x000032D0          0x03F085FA2946002002F02EFF7FF00501002203F082FAE8B2002103F0       0x08
578     S3       0x21           0x000032EC          0x08FA6421002003F012FA012003F015FA00280CBF01200020FDF7A3FB       0x31
579     S3       0x21           0x00003308          0x03F02CFA23E0204603F0F5F9AC4A1178A84A01294FF40041108803D1       0xB5
580     S3       0x21           0x00003324          0x884203D0002002E08842FBD00120002103F04EFA0A21002003F0EDF9       0xB2
581     S3       0x21           0x00003340          0x012003F02FFA00280CBF01200020FDF77EFB03F017FA00060CBF0120       0x97
582     S3       0x21           0x0000335C          0x0020FDF776FB0135BD4293D3002449E06000815B204603F059FBFEF7       0x04
583     S3       0x21           0x00003378          0x69F9FDF768FBFEF751F9FDF764FB8C4803F0C4F98848214602F043FF       0xF9
584     S3       0x21           0x00003394          0x8A4A108880B38B490878012805D16000805BD0F5004080B201E06000       0x72
585     S3       0x21           0x000033B0          0x805B002103F013FA2146002002F0BCFE7FF00501002203F010FA2046       0xD2
586     S3       0x21           0x000033CC          0x002103F096F90521002003F0A0F9012003F0A3F900280CBF01200020       0x86
587     S3       0x21           0x000033E8          0xFDF731FB03F0BAF900060CBF01200020FDF729FB0134E4B2BC42B3D3       0x84
588     S3       0x21           0x00003404          0x002405E02046012103F0A1FB0134E4B2BC42F7D3FEF718F9FDF717FB       0xE7
589     S3       0x21           0x00003420          0xFEF700F9FDF713FB634803F073F9002526E05F48E9B202F0F0FE634A       0x96
590     S3       0x21           0x0000343C          0x01201178012900D10020002103F0C4F9E8B2002103F055F90A210020       0x91
591     S3       0x21           0x00003458          0x03F05FF9012003F0A1F900280CBF01200020FDF7F0FA03F089F90006       0xCC
592     S3       0x21           0x00003474          0x0CBF01200020FDF7E8FA0135BD42D6D300240FE0204603F046FB6946       0x1A
593     S3       0x21           0x00003490          0x63005852595A985B88420CBF01200020FDF7D5FA0134E4B2BC42EDD3       0x45
594     S3       0x21           0x000034AC          0x002405E02046002103F04DFB0134E4B2BC42F7D3FEF7C4F8FDF7C3FA       0x3E
595     S3       0x21           0x000034C8          0xFEF7ACF8FDF7BFFA00243CE0384803F01DF93548214602F09CFE374A       0xE2
596     S3       0x21           0x000034E4          0x108880B337490878012805D16100895BD1F5004080B201E06000805B       0x63
597     S3       0x21           0x00003500          0x002103F06CF92146002002F015FE7FF00501002203F069F920460021       0x31
598     S3       0x21           0x0000351C          0x03F0EFF80521002003F0F9F8012003F0FCF800280CBF01200020FDF7       0x59
599     S3       0x21           0x00003538          0x8AFA03F013F900060CBF01200020FDF782FA0134E4B2BC42C0D30024       0xEC
600     S3       0x21           0x00003554          0x65E01648214602F05EFE1B4A107870B9600042F21071825B204603F0       0x9C
601     S3       0x21           0x00003570          0x74FAFEF76BF8FDF76AFAFEF753F8FDF766FA0D4803F0C6F80D490888       0x9B
602     S3       0x21           0x0000358C          0x002846D00E490878002842D10B490878012817D16100895BD1F50040       0x9D
603     S3       0x21           0x000035A8          0x80B213E09003FE1FB08500000F07FE1F80F0FA021207FE1F1007FE1F       0xEE
604     S3       0x21           0x000035C4          0xFF7F00000C07FE1F0E07FE1F6000805B002103F002F92146012002F0       0x41
605     S3       0x21           0x000035E0          0xABFD7FF00501002203F0FFF82046002103F085F80521002003F08FF8       0xE9
606     S3       0x21           0x000035FC          0x012003F092F800280CBF01200020FDF720FA03F0A9F800060CBF0120       0x47
607     S3       0x21           0x00003618          0x0020FDF718FA0134E4B2BC4297D3002405E02046012103F090FA0134       0xF4
608     S3       0x21           0x00003634          0xE4B2BC42F7D3FEF707F8FDF706FAFDF7EFFFFDF702FABB4803F062F8       0x0C
609     S3       0x21           0x00003650          0x002526E0B948E9B202F0DFFDB84A01201178012900D10020002103F0       0xE8
610     S3       0x21           0x0000366C          0xB3F8E8B2002103F044F80A21002003F04EF8012003F090F800280CBF       0x94
611     S3       0x21           0x00003688          0x01200020FDF7DFF903F078F800060CBF01200020FDF7D7F90135BD42       0xA5
612     S3       0x21           0x000036A4          0xD6D3002419E0A448214602F0B4FDA44A108880B1A349087868B92046       0x9E
613     S3       0x21           0x000036C0          0x03F02BFA694663005852595A985B88420CBF01200020FDF7BAF90134       0xBC
614     S3       0x21           0x000036DC          0xE4B2BC42E3D3002405E02046002103F032FA0134E4B2BC42F7D3FDF7       0x4C
615     S3       0x21           0x000036F8          0xA9FFFDF7A8F9FDF791FFFDF7A4F900243CE08B4803F002F88A482146       0x25
616     S3       0x21           0x00003714          0x02F081FD8A4A108880B388490878012805D16100895BD1F5004080B2       0xB7
617     S3       0x21           0x00003730          0x01E06000805B002103F051F82146012002F0FAFC7FF00501002203F0       0x04
618     S3       0x21           0x0000374C          0x4EF82046002102F0D4FF0521002002F0DEFF012002F0E1FF00280CBF       0xCE
619     S3       0x21           0x00003768          0x01200020FDF76FF902F0F8FF00060CBF01200020FDF767F90134E4B2       0x88
620     S3       0x21           0x00003784          0xBC42C0D3002404E0204603F085F90134E4B2BC42F8D3FDF757FFFDF7       0xE1
621     S3       0x21           0x000037A0          0x56F9FDF73FFFFDF752F9634802F0B2FF002512E06148ECB2214602F0       0x42
622     S3       0x21           0x000037BC          0x2EFD2946204602F09CFF614A2146107803F002F80A21204602F0A1FF       0xB4
623     S3       0x21           0x000037D8          0x0135BD42EAD3384602F0E0FF00280CBF01200020FDF72FF902F0C8FF       0x85
624     S3       0x21           0x000037F4          0x00060CBF01200020FDF727F9002405E02046012103F0A3F90134E4B2       0xA2
625     S3       0x21           0x00003810          0xBC42F7D3FDF71AFFFDF719F9FDF702FFFDF715F9444802F075FF0025       0xAD
626     S3       0x21           0x0000382C          0x26E04348E9B202F0F2FC424A01201178012900D10020002102F0C6FF       0x45
627     S3       0x21           0x00003848          0xE8B2002102F057FF0A21002002F061FF012002F0A3FF00280CBF0120       0xF5
628     S3       0x21           0x00003864          0x0020FDF7F2F802F08BFF00060CBF01200020FDF7EAF80135BD42D6D3       0x02
629     S3       0x21           0x00003880          0x00240EE0204603F048F9694662005052505A00280CBF01200020FDF7       0xF5
630     S3       0x21           0x0000389C          0xD8F80134E4B2BC42EED3002405E02046002103F050F90134E4B2BC42       0x1B
631     S3       0x21           0x000038B8          0xF7D3FDF7C7FEFDF7C6F8FDF7AFFEFDF7C2F803F09FF8FDF7BDFEFDF7       0x3D
632     S3       0x21           0x000038D4          0xBCF8FDF7A5FEFDF7B8F8164802F018FF002512E01448ECB2214602F0       0x12
633     S3       0x21           0x000038F0          0x94FC2946204602F002FF144A2146107802F068FF0A21204602F007FF       0x2F
634     S3       0x21           0x0000390C          0x0135BD42EAD3384602F046FF00280CBF01200020FDF795F802F02EFF       0x1E
635     S3       0x21           0x00003928          0x00060CBF01200020FDF78DF807B0F0BD80F0FA02B08500000C07FE1F       0xBD
636     S3       0x21           0x00003944          0x1007FE1F0E07FE1F0D07FE1FF0B5DE4D0021284602F05FFCDC4A1478       0x6C
637     S3       0x21           0x00003960          0x082C00D9082402F01AFE284603F037F8FDF76CFEFDF76BF8FDF754FE       0x77
638     S3       0x21           0x0000397C          0xFDF767F8D44802F0C7FE00266AE0F7B23946284602F043FCD04B1888       0x11
639     S3       0x21           0x00003998          0xD04B010018BF01211A88003A0CBF002101F00101CC4A82428CBF0122       0xF5
640     S3       0x21           0x000039B4          0x0022114027D0CA4A1178012902D1C749081A80B2002102F008FF3146       0xF8
641     S3       0x21           0x000039D0          0x002002F0B1FB7FF00501002202F005FFF0B2002102F08BFE05210020       0x06
642     S3       0x21           0x000039EC          0x02F095FE012002F098FEC0B200280CBF01200020FDF725F802F0AEFE       0x36
643     S3       0x21           0x00003A08          0x23E0384602F077FEB44A1178B04A0129B349108803D1884203D00020       0xE4
644     S3       0x21           0x00003A24          0x02E08842FBD00120002102F0D1FE0A21002002F070FE012002F0B2FE       0x98
645     S3       0x21           0x00003A40          0xC0B200280CBF01200020FDF700F802F099FE00280CBF01200020FCF7       0x22
646     S3       0x21           0x00003A5C          0xF8FF0136A64292D3002604E0F0B2002102F0DCFF0136A642F8D3FDF7       0x55
647     S3       0x21           0x00003A78          0xE9FDFCF7E8FFFDF7D1FDFCF7E4FF934802F044FE002617E0F7B23946       0x80
648     S3       0x21           0x00003A94          0x284602F0C0FB3146384602F02EFE904A01201178012900D10020F7B2       0x9A
649     S3       0x21           0x00003AB0          0x394602F08FFE0A21384602F02EFE0136A642E5D3204602F06DFEC0B2       0x23
650     S3       0x21           0x00003ACC          0x00280CBF01200020FCF7BBFF02F054FE00280CBF01200020FCF7B3FF       0xDA
651     S3       0x21           0x00003AE8          0x002604E07E49F0B202F09AFF0136A642F8D3764802F00AFE002617E0       0xFF
652     S3       0x21           0x00003B04          0xF7B23946284602F086FB3146384602F0F4FD734A00201178012900D1       0x5D
653     S3       0x21           0x00003B20          0x0846F7B2394602F055FE0A21384602F0F4FD0136A642E5D3204602F0       0x0D
654     S3       0x21           0x00003B3C          0x33FEC0B200280CBF01200020FCF781FF02F01AFE00280CBF01200020       0xDF
655     S3       0x21           0x00003B58          0xFCF779FF002604E06249F0B202F060FF0136A642F8D3FDF76DFDFCF7       0xFD
656     S3       0x21           0x00003B74          0x6CFFFDF755FDFCF768FF554802F0C8FD002633E0F1B2284602F045FB       0x54
657     S3       0x21           0x00003B90          0x524A108858B3534A54481178012900D15348002102F01BFE31460020       0xB9
658     S3       0x21           0x00003BAC          0x02F0C4FA7FF00501002202F018FEF0B2002102F09EFD0521002002F0       0x20
659     S3       0x21           0x00003BC8          0xA8FD012002F0ABFDC0B200280CBF01200020FCF738FF02F0C1FD0028       0xD3
660     S3       0x21           0x00003BE4          0x0CBF01200020FCF730FF0136A642C9D3002604E0F0B2002102F014FF       0x04
661     S3       0x21           0x00003C00          0x0136A642F8D3FDF721FDFCF720FFFDF709FDFCF71CFF2F4802F07CFD       0xAA
662     S3       0x21           0x00003C1C          0x002617E0F7B23946284602F0F8FA3146384602F066FD2C4A01201178       0x85
663     S3       0x21           0x00003C38          0x012900D10020F7B2394602F0C7FD0A21384602F066FD0136A642E5D3       0x9C
664     S3       0x21           0x00003C54          0x204602F0A5FDC0B200280CBF01200020FCF7F3FE02F08CFD00280CBF       0x5C
665     S3       0x21           0x00003C70          0x01200020FCF7EBFE002604E01B49F0B202F0D2FE0136A642F8D3FDF7       0x65
666     S3       0x21           0x00003C8C          0xDFFCFCF7DEFEFDF7C7FCFCF7DAFE0E4802F03AFD00264AE0F1B22846       0x0A
667     S3       0x21           0x00003CA8          0x02F0B7FA0B4A1088002841D00B4A0D481178012900D10C48002102F0       0x9C
668     S3       0x21           0x00003CC4          0x8CFD314614E000BFB08500000F07FE1F80F0FA021207FE1F1007FE1F       0xED
669     S3       0x21           0x00003CE0          0xFF7F00000C07FE1F0080000000200000FF5F0000002002F01FFA7FF0       0x7C
670     S3       0x21           0x00003CFC          0x0501002202F073FDF0B2002102F0F9FC0521002002F003FD012002F0       0x27
671     S3       0x21           0x00003D18          0x06FDC0B200280CBF01200020FCF793FE02F01CFD00280CBF01200020       0x1D
672     S3       0x21           0x00003D34          0xFCF78BFE0136A642B2D3002605E04FF40041F0B202F06EFE0136A642       0x9F
673     S3       0x21           0x00003D50          0xF7D3FDF77BFCFCF77AFEFDF763FCFCF776FE554802F0D6FC002617E0       0x79
674     S3       0x21           0x00003D6C          0xF7B23946284602F052FA3146384602F0C0FC4F4A00201178012900D1       0x81
675     S3       0x21           0x00003D88          0x0846F7B2394602F021FD0A21384602F0C0FC0136A642E5D3204602F0       0x0D
676     S3       0x21           0x00003DA4          0xFFFCC0B200280CBF01200020FCF74DFE02F0E6FC00280CBF01200020       0x16
677     S3       0x21           0x00003DC0          0xFCF745FE002604E0F0B2002102F02CFE0136A642F8D3FDF739FCFCF7       0xBC
678     S3       0x21           0x00003DDC          0x38FEFDF721FCFCF734FE344802F094FC002617E0F7B23946284602F0       0xB6
679     S3       0x21           0x00003DF8          0x10FA3146384602F07EFC2E4A01201178012900D10020F7B2394602F0       0xE7
680     S3       0x21           0x00003E14          0xDFFC0A21384602F07EFC0136A642E5D3204602F0BDFCC0B200280CBF       0x4F
681     S3       0x21           0x00003E30          0x01200020FCF70BFE02F0A4FC00280CBF01200020FCF703FE02F0E0FD       0xAA
682     S3       0x21           0x00003E4C          0xFDF7FEFBFCF7FDFDFDF7E6FBFCF7F9FD164802F059FC002612E0F7B2       0x56
683     S3       0x21           0x00003E68          0x3946284602F0D5F93146384602F043FC114A3946107802F0A9FC0A21       0x41
684     S3       0x21           0x00003E84          0x384602F048FC0136A642EAD3204602F087FCC0B200280CBF01200020       0x0B
685     S3       0x21           0x00003EA0          0xFCF7D5FD02F06EFC00280CBF01200020FCF7CDFDF0BD00BF80F0FA02       0x16
686     S3       0x21           0x00003EBC          0x0C07FE1F0D07FE1FF0B5DA4E0021304602F0A5F9D84A1578082D00D9       0xD2
687     S3       0x21           0x00003ED8          0x082502F060FB304602F07DFDFDF7B2FBFCF7B1FDFDF79AFBFCF7ADFD       0x04
688     S3       0x21           0x00003EF4          0xD04802F00DFC00246AE0E7B23946304602F089F9CC4B1888CC4B0100       0x5A
689     S3       0x21           0x00003F10          0x18BF01211A88003A0CBF002101F00101C84A82428CBF012200221140       0x24
690     S3       0x21           0x00003F2C          0x27D0C64A1178012902D1C349081A80B2002102F04EFC2146002002F0       0xB0
691     S3       0x21           0x00003F48          0xF7F87FF00501002202F04BFCE0B2002102F0D1FB0521002002F0DBFB       0x19
692     S3       0x21           0x00003F64          0x012002F0DEFBC0B200280CBF01200020FCF76BFD02F0F4FB23E03846       0xEC
693     S3       0x21           0x00003F80          0x02F0BDFBB04A1178AC4A0129AF49108803D1884203D0002002E08842       0x05
694     S3       0x21           0x00003F9C          0xFBD00120002102F017FC0A21002002F0B6FB012002F0F8FBC0B20028       0x63
695     S3       0x21           0x00003FB8          0x0CBF01200020FCF746FD02F0DFFB00280CBF01200020FCF73EFD0134       0x42
696     S3       0x21           0x00003FD4          0xAC4292D300240DE0E7B23946304602F01AF99A4A107820B995493846       0x33
697     S3       0x21           0x00003FF0          0x002202F032FD0134AC42EFD3FDF726FBFCF725FDFDF70EFBFCF721FD       0x4F
698     S3       0x21           0x0000400C          0x0A20FDF728F802F0C4FA884802F07CFB00242BE0E7B23946304602F0       0xBC
699     S3       0x21           0x00004028          0xF8F8894A107810BB3846002102F063FB834A01201178012900D10020       0xDF
700     S3       0x21           0x00004044          0x002102F0C5FB0A21002002F064FB012002F0A6FBC0B200280CBF0120       0xB1
701     S3       0x21           0x00004060          0x0020FCF7F4FC02F08DFB00280CBF01200020FCF7ECFC0134AC42D1D3       0xEB
702     S3       0x21           0x0000407C          0x00240DE0E7B23946304602F0C8F8714A107820B96E4A3846511E02F0       0x1E
703     S3       0x21           0x00004098          0xE0FC0134AC42EFD3FDF7D4FAFCF7D3FCFDF7BCFAFCF7CFFC0A20FCF7       0x3C
704     S3       0x21           0x000040B4          0xD6FF02F072FA5F4802F02AFB00242BE0E7B23946304602F0A6F8604A       0x02
705     S3       0x21           0x000040D0          0x107810BB3846002102F011FB5A4A00201178012900D10846002102F0       0x35
706     S3       0x21           0x000040EC          0x73FB0A21002002F012FB012002F054FBC0B200280CBF01200020FCF7       0xFF
707     S3       0x21           0x00004108          0xA2FC02F03BFB00280CBF01200020FCF79AFC0134AC42D1D300240DE0       0x3A
708     S3       0x21           0x00004124          0xE7B23946304602F076F8484A107820B9474A4349384602F08EFC0134       0x4C
709     S3       0x21           0x00004140          0xAC42EFD3FDF782FAFCF781FCFDF76AFAFCF77DFC384802F0DDFA0024       0x9C
710     S3       0x21           0x0000415C          0x33E0E1B2304602F05AF83A4A107858BB364A39481178012901D145F6       0x01
711     S3       0x21           0x00004178          0xFF70002102F02FFB204602F01CF87FF00501002202F02DFBE0B20021       0xA9
712     S3       0x21           0x00004194          0x02F0B3FA0521002002F0BDFA012002F0C0FAC0B200280CBF01200020       0x08
713     S3       0x21           0x000041B0          0xFCF74DFC02F0D6FA00280CBF01200020FCF745FC0134AC42C9D30024       0xA4
714     S3       0x21           0x000041CC          0x0DE0E7B23946304602F021F81D4A107820B919493846002202F039FC       0x5A
715     S3       0x21           0x000041E8          0x0134AC42EFD3FDF72DFAFCF72CFCFDF715FAFCF728FC0A20FCF72FFF       0x35
716     S3       0x21           0x00004204          0x02F0CBF90B4802F083FA002441E0E7B23946304601F0FFFF0C4A1078       0x80
717     S3       0x21           0x00004220          0xC0BB3846002102F06AFA074A14E000BFB08500000F07FE1F80F0FA02       0x34
718     S3       0x21           0x0000423C          0x1207FE1F1007FE1FFF7F00000C07FE1F008000000E07FE1F00200000       0x76
719     S3       0x21           0x00004258          0x01201178012900D10020002102F0B6FA0A21002002F055FA012002F0       0x1D
720     S3       0x21           0x00004274          0x97FAC0B200280CBF01200020FCF7E5FB02F07EFA00280CBF01200020       0x80
721     S3       0x21           0x00004290          0xFCF7DDFB0134AC42BBD300240DE0E7B23946304601F0B9FF944A1078       0xE2
722     S3       0x21           0x000042AC          0x20B9944A9449384602F0D1FB0134AC42EFD3FDF7C5F9FCF7C4FBFDF7       0xE3
723     S3       0x21           0x000042C8          0xADF9FCF7C0FB0A20FCF7C7FE8C4802F01DFA002433E0E1B2304601F0       0x90
724     S3       0x21           0x000042E4          0x9AFF854A107858BB874A84481178012901D145F6FF70002102F06FFA       0x6D
725     S3       0x21           0x00004300          0x204601F05CFF7FF00501002202F06DFAE0B2002102F0F3F905210020       0x22
726     S3       0x21           0x0000431C          0x02F0FDF9012002F000FAC0B200280CBF01200020FCF78DFB02F016FA       0x67
727     S3       0x21           0x00004338          0x00280CBF01200020FCF785FB0134AC42C9D300240EE0E7B239463046       0x5D
728     S3       0x21           0x00004354          0x01F061FF684A107828B94FF400423846511E02F078FB0134AC42EED3       0x20
729     S3       0x21           0x00004370          0xFDF76CF9FCF76BFBFDF754F9FCF767FB02F00DF9604802F0C5F90024       0x6F
730     S3       0x21           0x0000438C          0x2BE0E7B23946304601F041FF584A107810BB3846002102F0ACF9594A       0x77
731     S3       0x21           0x000043A8          0x00201178012900D10846002102F00EFA0A21002002F0ADF9012002F0       0xF0
732     S3       0x21           0x000043C4          0xEFF9C0B200280CBF01200020FCF73DFB02F0D6F900280CBF01200020       0x29
733     S3       0x21           0x000043E0          0xFCF735FB0134AC42D1D300240DE0E7B23946304601F011FF404A1078       0x1F
734     S3       0x21           0x000043FC          0x20B941493846002202F029FB0134AC42EFD3FDF71DF9FCF71CFBFDF7       0x99
735     S3       0x21           0x00004418          0x05F9FCF718FB0A20FCF71FFE02F0BBF8374802F073F900242BE0E7B2       0xFA
736     S3       0x21           0x00004434          0x3946304601F0EFFE2F4A107810BB3846002102F05AF9304A01201178       0xBF
737     S3       0x21           0x00004450          0x012900D10020002102F0BCF90A21002002F05BF9012002F09DF9C0B2       0xBB
738     S3       0x21           0x0000446C          0x00280CBF01200020FCF7EBFA02F084F900280CBF01200020FCF7E3FA       0xAF
739     S3       0x21           0x00004488          0x0134AC42D1D302F0BDFAFDF7DBF8FCF7DAFAFDF7C3F8FCF7D6FA1948       0x41
740     S3       0x21           0x000044A4          0x02F036F9002412E0E7B23946304601F0B2FE2146384602F020F9144A       0x42
741     S3       0x21           0x000044C0          0x3946107802F086F90A21384602F025F90134AC42EAD3284602F064F9       0x0C
742     S3       0x21           0x000044DC          0xC0B200280CBF01200020FCF7B2FA02F04BF900280CBF01200020FCF7       0x1C
743     S3       0x21           0x000044F8          0xAAFAF0BD0E07FE1F00200000FF7F000080F0FA020C07FE1F0D07FE1F       0xB4
744     S3       0x21           0x00004514          0x0020DD4A002342F8203001302028F8D3704700200146D84B53F82120       0x80
745     S3       0x21           0x00004530          0x02B1012001312029F7D37047F0B58EB0D348002101F069FED24A1278       0x7C
746     S3       0x21           0x0000454C          0x0192082A01D90821019102F022F8CD4802F03FFAFDF774F8FCF773FA       0xE7
747     S3       0x21           0x00004568          0xFDF75CF8FCF76FFAC94802F0CFF8002744E0C548F9B201F04CFEC64B       0x74
748     S3       0x21           0x00004584          0x1888C64B010018BF01211A88003A0CBF002101F00101C24A82428CBF       0x94
749     S3       0x21           0x000045A0          0x0122002211402CD0BF4A1178012902D1BC49081A80B2002102F011F9       0x62
750     S3       0x21           0x000045BC          0x3946002001F0BAFD7FF00501002202F00EF9F8B2002102F094F86421       0x38
751     S3       0x21           0x000045D8          0x002002F09EF8012002F0A1F8C0B200280CBF01200020FCF72EFA02F0       0xBA
752     S3       0x21           0x000045F4          0xB7F800280CBF01200020FCF726FA013701988742B7D3002404E0A749       0x93
753     S3       0x21           0x00004610          0xE0B202F009FA013401988442F7D303A8002701F0BAFD3C4607E003AA       0x13
754     S3       0x21           0x0000462C          0x52F824000199884200D2274601340D988442F4D9002459E003AB53F8       0x98
755     S3       0x21           0x00004648          0x2460FFF763FFF0B2022102F03DFA964D8C4B009353F826000A2801D2       0xC3
756     S3       0x21           0x00004664          0x013DF7D1F0B2029002F023FA009B002143F82610280018BF0120FCF7       0xAB
757     S3       0x21           0x00004680          0xE6F9FFF750FF00280CBF01200020FCF7DEF9FCF7DBFFFCF7DAF9FCF7       0x70
758     S3       0x21           0x0000469C          0xC3FFFCF7D6F9029802F0FAF90298022102F010FA7F4D009850F82600       0x6E
759     S3       0x21           0x000046B8          0x08B9013DF9D1F0B202F0F9F9009A002042F82600002D08BF0120FCF7       0x6F
760     S3       0x21           0x000046D4          0xBCF9FFF726FF00280CBF01200020FCF7B4F9FCF7B1FFFCF7B0F9FCF7       0xEE
761     S3       0x21           0x000046F0          0x99FFFCF7ACF90134BC42A3D3002404E06A49E0B202F090F901340198       0x39
762     S3       0x21           0x0000470C          0x8442F7D303A8002701F039FD3C4607E003AA52F824000199884200D2       0x48
763     S3       0x21           0x00004728          0x274601340D988442F4D9002459E003AB53F82460FFF7EAFEF0B20121       0x19
764     S3       0x21           0x00004744          0x02F0C4F9594D504B009353F826100A2901D2013DF7D1F0B2029002F0       0x1D
765     S3       0x21           0x00004760          0xAAF9009B002143F82610280018BF0120FCF76DF9FFF7D7FE00280CBF       0x30
766     S3       0x21           0x0000477C          0x01200020FCF765F9FCF762FFFCF761F9FCF74AFFFCF75DF9029802F0       0xD7
767     S3       0x21           0x00004798          0x81F90298012102F097F9434D009850F8260008B9013DF9D1F0B202F0       0x54
768     S3       0x21           0x000047B4          0x80F9009A002042F82600002D08BF0120FCF743F9FFF7ADFE00280CBF       0x78
769     S3       0x21           0x000047D0          0x01200020FCF73BF9FCF738FFFCF737F9FCF720FFFCF733F90134BC42       0xAE
770     S3       0x21           0x000047EC          0xA3D3002404E02E49E0B202F017F9013401988442F7D303A8002701F0       0x01
771     S3       0x21           0x00004808          0xD1FC3C4607E003AA52F824000199884200D2274601340D988442F4D9       0x2D
772     S3       0x21           0x00004824          0x00246FE003AB53F82460FFF771FEF0B2032102F04BF91D4D134B0093       0xC6
773     S3       0x21           0x00004840          0x53F826100A2901D2013DF7D1F0B2029002F031F9009B002143F82610       0x4C
774     S3       0x21           0x0000485C          0x280018BF0120FCF7F4F8FFF75EFE00280CBF01200020FCF7ECF8FCF7       0xEB
775     S3       0x21           0x00004878          0xE9FEFCF7E8F8FCF7D1FEFCF7E4F8029814E000BF8404FE1FB0850000       0xAC
776     S3       0x21           0x00004894          0x0F07FE1F80F0FA021207FE1F1007FE1FFF7F00000C07FE1F00400000       0x0B
777     S3       0x21           0x000048B0          0x400D030002F0F2F80298032102F008F9434D009850F8260008B9013D       0x74
778     S3       0x21           0x000048CC          0xF9D1F0B202F0F1F8009A002042F82600002D08BF0120FCF7B4F8FFF7       0xBF
779     S3       0x21           0x000048E8          0x1EFE00280CBF01200020FCF7ACF8FCF7A9FEFCF7A8F8FCF791FEFCF7       0x25
780     S3       0x21           0x00004904          0xA4F80134BC428DD3002405E04FF48041E0B202F087F8013401988442       0xBE
781     S3       0x21           0x00004920          0xF6D300240BE0E0B202F0C5F8FCF78EFEFCF78DF8FCF776FEFCF789F8       0x8A
782     S3       0x21           0x0000493C          0x013401988442F0D3FFF7E6FDFCF797FBFFF7EBFD00280CBF01200020       0x92
783     S3       0x21           0x00004958          0xFCF779F802F056F8FCF774FEFCF773F8FCF75CFEFCF76FF8184801F0       0xDE
784     S3       0x21           0x00004974          0xCFFE002712E01748FCB2214601F04BFC3946204601F0B9FE134A2146       0x3E
785     S3       0x21           0x00004990          0x107801F01FFF0A21204601F0BEFE013701988742E9D3C0B201F0FCFE       0x7D
786     S3       0x21           0x000049AC          0xC0B200280CBF01200020FCF74AF801F0E3FE00280CBF01200020FCF7       0x15
787     S3       0x21           0x000049C8          0x42F80EB0F0BD00BF400D030080F0FA02B08500000D07FE1FF0B5DA4E       0x7A
788     S3       0x21           0x000049E4          0x0021304601F017FCD84A1578082D00D9082501F0D2FD304601F0EFFF       0x17
789     S3       0x21           0x00004A00          0xFCF724FEFCF723F8FCF70CFEFCF71FF8D04801F07FFE00246BE0E7B2       0xDC
790     S3       0x21           0x00004A1C          0x3946304601F0FBFBCC4B1888CC4B010018BF01211A88003A0CBF0021       0x0C
791     S3       0x21           0x00004A38          0x01F00101C84A82428CBF01220022114027D0C64A1178012902D1C349       0x19
792     S3       0x21           0x00004A54          0x081A80B2002101F0C0FE2146002001F069FB7FF00501002201F0BDFE       0xFD
793     S3       0x21           0x00004A70          0xE0B2002101F043FE0521002001F04DFE012001F050FEC0B200280CBF       0xF8
794     S3       0x21           0x00004A8C          0x01200020FBF7DDFF01F066FE24E0384601F02FFEB04A1178AC4A0129       0x61
795     S3       0x21           0x00004AA8          0x4FF40041108803D1884203D0002002E08842FBD00120002101F088FE       0x0F
796     S3       0x21           0x00004AC4          0x0A21002001F027FE012001F069FEC0B200280CBF01200020FBF7B7FF       0xA8
797     S3       0x21           0x00004AE0          0x01F050FE00280CBF01200020FBF7AFFF0134AC4291D300240DE0E7B2       0x70
798     S3       0x21           0x00004AFC          0x3946304601F08BFB984A107820B9984A9849384601F0A3FF0134AC42       0xF2
799     S3       0x21           0x00004B18          0xEFD3FCF797FDFBF796FFFCF77FFDFBF792FF0A20FCF799FA884801F0       0x48
800     S3       0x21           0x00004B34          0xEFFD002432E0E1B2304601F06CFB894A107850BB864A884811780129       0x23
801     S3       0x21           0x00004B50          0x00D18848002101F042FE204601F033FB7FF00501002201F040FEE0B2       0x73
802     S3       0x21           0x00004B6C          0x002101F0C6FD0521002001F0D0FD012001F0D3FDC0B200280CBF0120       0xE6
803     S3       0x21           0x00004B88          0x0020FBF760FF01F0E9FD00280CBF01200020FBF758FF0134AC42CAD3       0x86
804     S3       0x21           0x00004BA4          0x00240DE0E7B23946304601F034FB6D4A107820B96C4A6949384601F0       0x41
805     S3       0x21           0x00004BC0          0x4CFF0134AC42EFD3FCF740FDFBF73FFFFCF728FDFBF73BFF0A20FCF7       0xE2
806     S3       0x21           0x00004BDC          0x42FA5D4801F098FD002432E0E1B2304601F015FB5D4A107850BB5B4A       0x31
807     S3       0x21           0x00004BF8          0x5C481178012900D15C48002101F0EBFD204601F0E0FA7FF005010022       0x0D
808     S3       0x21           0x00004C14          0x01F0E9FDE0B2002101F06FFD0521002001F079FD012001F07CFDC0B2       0xED
809     S3       0x21           0x00004C30          0x00280CBF01200020FBF709FF01F092FD00280CBF01200020FBF701FF       0x8E
810     S3       0x21           0x00004C4C          0x0134AC42CAD300240DE0E7B23946304601F0DDFA414A107820B9414A       0xA8
811     S3       0x21           0x00004C68          0x4149384601F0F5FE0134AC42EFD3FCF7E9FCFBF7E8FEFCF7D1FCFBF7       0xF7
812     S3       0x21           0x00004C84          0xE4FE0A20FCF7EBF9314801F041FD002432E0E1B2304601F0BEFA324A       0x1F
813     S3       0x21           0x00004CA0          0x107850BB2F4A31481178012900D13148002101F094FD204601F085FA       0xF7
814     S3       0x21           0x00004CBC          0x7FF00501002201F092FDE0B2002101F018FD0521002001F022FD0120       0x8F
815     S3       0x21           0x00004CD8          0x01F025FDC0B200280CBF01200020FBF7B2FE01F03BFD00280CBF0120       0x22
816     S3       0x21           0x00004CF4          0x0020FBF7AAFE0134AC42CAD301F084FEFCF7A2FCFBF7A1FEFCF78AFC       0x16
817     S3       0x21           0x00004D10          0xFBF79DFE0F4801F0FDFC002412E0E7B23946304601F079FA21463846       0xC6
818     S3       0x21           0x00004D2C          0x01F0E7FC114A3946107801F04DFD0A21384601F0ECFC0134AC42EAD3       0x92
819     S3       0x21           0x00004D48          0x18E000BFB08500000F07FE1F80F0FA021207FE1F1007FE1FFF7F0000       0xD6
820     S3       0x21           0x00004D64          0x0C07FE1F0E07FE1F00200000CC0C0000FF5F00000D07FE1F284601F0       0xE5
